{
  "contracts/BettingPool.sol": {
    "BettingPool": {
      "abi": [
        {
          "inputs": [
            {
              "internalType": "address",
              "name": "_commissionsAddress",
              "type": "address"
            },
            {
              "internalType": "address",
              "name": "_flowUtilityToken",
              "type": "address"
            },
            {
              "internalType": "address",
              "name": "_topShot",
              "type": "address"
            }
          ],
          "stateMutability": "nonpayable",
          "type": "constructor"
        },
        {
          "anonymous": false,
          "inputs": [
            {
              "indexed": false,
              "internalType": "uint256",
              "name": "amount",
              "type": "uint256"
            }
          ],
          "name": "AccruedFeesWithdrawn",
          "type": "event"
        },
        {
          "anonymous": false,
          "inputs": [
            {
              "indexed": false,
              "internalType": "uint256",
              "name": "userID",
              "type": "uint256"
            },
            {
              "indexed": false,
              "internalType": "uint256",
              "name": "amount",
              "type": "uint256"
            }
          ],
          "name": "Deposit",
          "type": "event"
        },
        {
          "anonymous": false,
          "inputs": [
            {
              "indexed": true,
              "internalType": "address",
              "name": "contractAddress",
              "type": "address"
            },
            {
              "indexed": false,
              "internalType": "uint256",
              "name": "momentID",
              "type": "uint256"
            }
          ],
          "name": "MomentPurchased",
          "type": "event"
        },
        {
          "anonymous": false,
          "inputs": [
            {
              "indexed": false,
              "internalType": "uint256",
              "name": "userID",
              "type": "uint256"
            }
          ],
          "name": "NewUser",
          "type": "event"
        },
        {
          "anonymous": false,
          "inputs": [
            {
              "indexed": false,
              "internalType": "uint256",
              "name": "userID",
              "type": "uint256"
            },
            {
              "indexed": false,
              "internalType": "uint256",
              "name": "amount",
              "type": "uint256"
            }
          ],
          "name": "Withdrawal",
          "type": "event"
        },
        {
          "inputs": [],
          "name": "accruedFees",
          "outputs": [
            {
              "internalType": "uint256",
              "name": "",
              "type": "uint256"
            }
          ],
          "stateMutability": "view",
          "type": "function"
        },
        {
          "inputs": [],
          "name": "admin",
          "outputs": [
            {
              "internalType": "address",
              "name": "",
              "type": "address"
            }
          ],
          "stateMutability": "view",
          "type": "function"
        },
        {
          "inputs": [],
          "name": "commissionRate",
          "outputs": [
            {
              "internalType": "uint256",
              "name": "",
              "type": "uint256"
            }
          ],
          "stateMutability": "view",
          "type": "function"
        },
        {
          "inputs": [],
          "name": "commissionsAddress",
          "outputs": [
            {
              "internalType": "address",
              "name": "",
              "type": "address"
            }
          ],
          "stateMutability": "view",
          "type": "function"
        },
        {
          "inputs": [],
          "name": "deposit",
          "outputs": [],
          "stateMutability": "payable",
          "type": "function"
        },
        {
          "inputs": [],
          "name": "flowUtilityToken",
          "outputs": [
            {
              "internalType": "contract IFlowUtilityToken",
              "name": "",
              "type": "address"
            }
          ],
          "stateMutability": "view",
          "type": "function"
        },
        {
          "inputs": [
            {
              "internalType": "uint256",
              "name": "momentID",
              "type": "uint256"
            }
          ],
          "name": "purchaseMoment",
          "outputs": [],
          "stateMutability": "nonpayable",
          "type": "function"
        },
        {
          "inputs": [],
          "name": "topShot",
          "outputs": [
            {
              "internalType": "contract ITopShot",
              "name": "",
              "type": "address"
            }
          ],
          "stateMutability": "view",
          "type": "function"
        },
        {
          "inputs": [
            {
              "internalType": "uint256",
              "name": "momentID",
              "type": "uint256"
            },
            {
              "internalType": "address",
              "name": "recipient",
              "type": "address"
            }
          ],
          "name": "transferMoment",
          "outputs": [],
          "stateMutability": "nonpayable",
          "type": "function"
        },
        {
          "inputs": [
            {
              "internalType": "address",
              "name": "",
              "type": "address"
            }
          ],
          "name": "users",
          "outputs": [
            {
              "internalType": "uint256",
              "name": "owedValue",
              "type": "uint256"
            },
            {
              "internalType": "uint256",
              "name": "balance",
              "type": "uint256"
            }
          ],
          "stateMutability": "view",
          "type": "function"
        },
        {
          "inputs": [
            {
              "internalType": "uint256",
              "name": "amount",
              "type": "uint256"
            }
          ],
          "name": "withdraw",
          "outputs": [],
          "stateMutability": "nonpayable",
          "type": "function"
        },
        {
          "inputs": [],
          "name": "withdrawAccruedFees",
          "outputs": [],
          "stateMutability": "nonpayable",
          "type": "function"
        }
      ],
      "devdoc": {
        "kind": "dev",
        "methods": {},
        "version": 1
      },
      "evm": {
        "assembly": "    /* \"contracts/BettingPool.sol\":512:3212  contract BettingPool {... */\n  mstore(0x40, 0x80)\n    /* \"contracts/BettingPool.sol\":612:613  5 */\n  0x05\n    /* \"contracts/BettingPool.sol\":580:613  uint256 public commissionRate = 5 */\n  0x01\n  sstore\n    /* \"contracts/BettingPool.sol\":1163:1442  constructor(address _commissionsAddress, address _flowUtilityToken, address _topShot) {... */\n  callvalue\n  dup1\n  iszero\n  tag_1\n  jumpi\n  0x00\n  dup1\n  revert\ntag_1:\n  pop\n  mload(0x40)\n  sub(codesize, bytecodeSize)\n  dup1\n  bytecodeSize\n  dup4\n  codecopy\n  dup2\n  dup2\n  add\n  0x40\n  mstore\n  dup2\n  add\n  swap1\n  tag_2\n  swap2\n  swap1\n  tag_3\n  jump\t// in\ntag_2:\n    /* \"contracts/BettingPool.sol\":1281:1300  _commissionsAddress */\n  dup3\n    /* \"contracts/BettingPool.sol\":1260:1278  commissionsAddress */\n  0x00\n  dup1\n    /* \"contracts/BettingPool.sol\":1260:1300  commissionsAddress = _commissionsAddress */\n  0x0100\n  exp\n  dup2\n  sload\n  dup2\n  0xffffffffffffffffffffffffffffffffffffffff\n  mul\n  not\n  and\n  swap1\n  dup4\n  0xffffffffffffffffffffffffffffffffffffffff\n  and\n  mul\n  or\n  swap1\n  sstore\n  pop\n    /* \"contracts/BettingPool.sol\":1319:1329  msg.sender */\n  caller\n    /* \"contracts/BettingPool.sol\":1311:1316  admin */\n  0x03\n  0x00\n    /* \"contracts/BettingPool.sol\":1311:1329  admin = msg.sender */\n  0x0100\n  exp\n  dup2\n  sload\n  dup2\n  0xffffffffffffffffffffffffffffffffffffffff\n  mul\n  not\n  and\n  swap1\n  dup4\n  0xffffffffffffffffffffffffffffffffffffffff\n  and\n  mul\n  or\n  swap1\n  sstore\n  pop\n    /* \"contracts/BettingPool.sol\":1377:1394  _flowUtilityToken */\n  dup2\n    /* \"contracts/BettingPool.sol\":1340:1356  flowUtilityToken */\n  0x04\n  0x00\n    /* \"contracts/BettingPool.sol\":1340:1395  flowUtilityToken = IFlowUtilityToken(_flowUtilityToken) */\n  0x0100\n  exp\n  dup2\n  sload\n  dup2\n  0xffffffffffffffffffffffffffffffffffffffff\n  mul\n  not\n  and\n  swap1\n  dup4\n  0xffffffffffffffffffffffffffffffffffffffff\n  and\n  mul\n  or\n  swap1\n  sstore\n  pop\n    /* \"contracts/BettingPool.sol\":1425:1433  _topShot */\n  dup1\n    /* \"contracts/BettingPool.sol\":1406:1413  topShot */\n  0x05\n  0x00\n    /* \"contracts/BettingPool.sol\":1406:1434  topShot = ITopShot(_topShot) */\n  0x0100\n  exp\n  dup2\n  sload\n  dup2\n  0xffffffffffffffffffffffffffffffffffffffff\n  mul\n  not\n  and\n  swap1\n  dup4\n  0xffffffffffffffffffffffffffffffffffffffff\n  and\n  mul\n  or\n  swap1\n  sstore\n  pop\n    /* \"contracts/BettingPool.sol\":1163:1442  constructor(address _commissionsAddress, address _flowUtilityToken, address _topShot) {... */\n  pop\n  pop\n  pop\n    /* \"contracts/BettingPool.sol\":512:3212  contract BettingPool {... */\n  jump(tag_6)\n    /* \"#utility.yul\":88:205   */\ntag_8:\n    /* \"#utility.yul\":197:198   */\n  0x00\n    /* \"#utility.yul\":194:195   */\n  dup1\n    /* \"#utility.yul\":187:199   */\n  revert\n    /* \"#utility.yul\":334:460   */\ntag_10:\n    /* \"#utility.yul\":371:378   */\n  0x00\n    /* \"#utility.yul\":411:453   */\n  0xffffffffffffffffffffffffffffffffffffffff\n    /* \"#utility.yul\":404:409   */\n  dup3\n    /* \"#utility.yul\":400:454   */\n  and\n    /* \"#utility.yul\":389:454   */\n  swap1\n  pop\n    /* \"#utility.yul\":334:460   */\n  swap2\n  swap1\n  pop\n  jump\t// out\n    /* \"#utility.yul\":466:562   */\ntag_11:\n    /* \"#utility.yul\":503:510   */\n  0x00\n    /* \"#utility.yul\":532:556   */\n  tag_20\n    /* \"#utility.yul\":550:555   */\n  dup3\n    /* \"#utility.yul\":532:556   */\n  tag_10\n  jump\t// in\ntag_20:\n    /* \"#utility.yul\":521:556   */\n  swap1\n  pop\n    /* \"#utility.yul\":466:562   */\n  swap2\n  swap1\n  pop\n  jump\t// out\n    /* \"#utility.yul\":568:690   */\ntag_12:\n    /* \"#utility.yul\":641:665   */\n  tag_22\n    /* \"#utility.yul\":659:664   */\n  dup2\n    /* \"#utility.yul\":641:665   */\n  tag_11\n  jump\t// in\ntag_22:\n    /* \"#utility.yul\":634:639   */\n  dup2\n    /* \"#utility.yul\":631:666   */\n  eq\n    /* \"#utility.yul\":621:684   */\n  tag_23\n  jumpi\n    /* \"#utility.yul\":680:681   */\n  0x00\n    /* \"#utility.yul\":677:678   */\n  dup1\n    /* \"#utility.yul\":670:682   */\n  revert\n    /* \"#utility.yul\":621:684   */\ntag_23:\n    /* \"#utility.yul\":568:690   */\n  pop\n  jump\t// out\n    /* \"#utility.yul\":696:839   */\ntag_13:\n    /* \"#utility.yul\":753:758   */\n  0x00\n    /* \"#utility.yul\":784:790   */\n  dup2\n    /* \"#utility.yul\":778:791   */\n  mload\n    /* \"#utility.yul\":769:791   */\n  swap1\n  pop\n    /* \"#utility.yul\":800:833   */\n  tag_25\n    /* \"#utility.yul\":827:832   */\n  dup2\n    /* \"#utility.yul\":800:833   */\n  tag_12\n  jump\t// in\ntag_25:\n    /* \"#utility.yul\":696:839   */\n  swap3\n  swap2\n  pop\n  pop\n  jump\t// out\n    /* \"#utility.yul\":845:1508   */\ntag_3:\n    /* \"#utility.yul\":933:939   */\n  0x00\n    /* \"#utility.yul\":941:947   */\n  dup1\n    /* \"#utility.yul\":949:955   */\n  0x00\n    /* \"#utility.yul\":998:1000   */\n  0x60\n    /* \"#utility.yul\":986:995   */\n  dup5\n    /* \"#utility.yul\":977:984   */\n  dup7\n    /* \"#utility.yul\":973:996   */\n  sub\n    /* \"#utility.yul\":969:1001   */\n  slt\n    /* \"#utility.yul\":966:1085   */\n  iszero\n  tag_27\n  jumpi\n    /* \"#utility.yul\":1004:1083   */\n  tag_28\n  tag_8\n  jump\t// in\ntag_28:\n    /* \"#utility.yul\":966:1085   */\ntag_27:\n    /* \"#utility.yul\":1124:1125   */\n  0x00\n    /* \"#utility.yul\":1149:1213   */\n  tag_29\n    /* \"#utility.yul\":1205:1212   */\n  dup7\n    /* \"#utility.yul\":1196:1202   */\n  dup3\n    /* \"#utility.yul\":1185:1194   */\n  dup8\n    /* \"#utility.yul\":1181:1203   */\n  add\n    /* \"#utility.yul\":1149:1213   */\n  tag_13\n  jump\t// in\ntag_29:\n    /* \"#utility.yul\":1139:1213   */\n  swap4\n  pop\n    /* \"#utility.yul\":1095:1223   */\n  pop\n    /* \"#utility.yul\":1262:1264   */\n  0x20\n    /* \"#utility.yul\":1288:1352   */\n  tag_30\n    /* \"#utility.yul\":1344:1351   */\n  dup7\n    /* \"#utility.yul\":1335:1341   */\n  dup3\n    /* \"#utility.yul\":1324:1333   */\n  dup8\n    /* \"#utility.yul\":1320:1342   */\n  add\n    /* \"#utility.yul\":1288:1352   */\n  tag_13\n  jump\t// in\ntag_30:\n    /* \"#utility.yul\":1278:1352   */\n  swap3\n  pop\n    /* \"#utility.yul\":1233:1362   */\n  pop\n    /* \"#utility.yul\":1401:1403   */\n  0x40\n    /* \"#utility.yul\":1427:1491   */\n  tag_31\n    /* \"#utility.yul\":1483:1490   */\n  dup7\n    /* \"#utility.yul\":1474:1480   */\n  dup3\n    /* \"#utility.yul\":1463:1472   */\n  dup8\n    /* \"#utility.yul\":1459:1481   */\n  add\n    /* \"#utility.yul\":1427:1491   */\n  tag_13\n  jump\t// in\ntag_31:\n    /* \"#utility.yul\":1417:1491   */\n  swap2\n  pop\n    /* \"#utility.yul\":1372:1501   */\n  pop\n    /* \"#utility.yul\":845:1508   */\n  swap3\n  pop\n  swap3\n  pop\n  swap3\n  jump\t// out\n    /* \"contracts/BettingPool.sol\":512:3212  contract BettingPool {... */\ntag_6:\n  dataSize(sub_0)\n  dup1\n  dataOffset(sub_0)\n  0x00\n  codecopy\n  0x00\n  return\nstop\n\nsub_0: assembly {\n        /* \"contracts/BettingPool.sol\":512:3212  contract BettingPool {... */\n      mstore(0x40, 0x80)\n      jumpi(tag_1, lt(calldatasize, 0x04))\n      shr(0xe0, calldataload(0x00))\n      dup1\n      0xa87430ba\n      gt\n      tag_14\n      jumpi\n      dup1\n      0xa87430ba\n      eq\n      tag_8\n      jumpi\n      dup1\n      0xada82c7d\n      eq\n      tag_9\n      jumpi\n      dup1\n      0xb4de8381\n      eq\n      tag_10\n      jumpi\n      dup1\n      0xc29785cc\n      eq\n      tag_11\n      jumpi\n      dup1\n      0xd0e30db0\n      eq\n      tag_12\n      jumpi\n      dup1\n      0xf851a440\n      eq\n      tag_13\n      jumpi\n      jump(tag_1)\n    tag_14:\n      dup1\n      0x2e1a7d4d\n      eq\n      tag_2\n      jumpi\n      dup1\n      0x41eb7307\n      eq\n      tag_3\n      jumpi\n      dup1\n      0x5028227c\n      eq\n      tag_4\n      jumpi\n      dup1\n      0x5ea1d6f8\n      eq\n      tag_5\n      jumpi\n      dup1\n      0x682c2058\n      eq\n      tag_6\n      jumpi\n      dup1\n      0x6e161810\n      eq\n      tag_7\n      jumpi\n    tag_1:\n      0x00\n      dup1\n      revert\n        /* \"contracts/BettingPool.sol\":1825:2185  function withdraw(uint256 amount) external {... */\n    tag_2:\n      callvalue\n      dup1\n      iszero\n      tag_15\n      jumpi\n      0x00\n      dup1\n      revert\n    tag_15:\n      pop\n      tag_16\n      0x04\n      dup1\n      calldatasize\n      sub\n      dup2\n      add\n      swap1\n      tag_17\n      swap2\n      swap1\n      tag_18\n      jump\t// in\n    tag_17:\n      tag_19\n      jump\t// in\n    tag_16:\n      stop\n        /* \"contracts/BettingPool.sol\":2193:2829  function purchaseMoment(uint256 momentID) external onlyAdmin {... */\n    tag_3:\n      callvalue\n      dup1\n      iszero\n      tag_20\n      jumpi\n      0x00\n      dup1\n      revert\n    tag_20:\n      pop\n      tag_21\n      0x04\n      dup1\n      calldatasize\n      sub\n      dup2\n      add\n      swap1\n      tag_22\n      swap2\n      swap1\n      tag_18\n      jump\t// in\n    tag_22:\n      tag_23\n      jump\t// in\n    tag_21:\n      stop\n        /* \"contracts/BettingPool.sol\":730:753  ITopShot public topShot */\n    tag_4:\n      callvalue\n      dup1\n      iszero\n      tag_24\n      jumpi\n      0x00\n      dup1\n      revert\n    tag_24:\n      pop\n      tag_25\n      tag_26\n      jump\t// in\n    tag_25:\n      mload(0x40)\n      tag_27\n      swap2\n      swap1\n      tag_28\n      jump\t// in\n    tag_27:\n      mload(0x40)\n      dup1\n      swap2\n      sub\n      swap1\n      return\n        /* \"contracts/BettingPool.sol\":580:613  uint256 public commissionRate = 5 */\n    tag_5:\n      callvalue\n      dup1\n      iszero\n      tag_29\n      jumpi\n      0x00\n      dup1\n      revert\n    tag_29:\n      pop\n      tag_30\n      tag_31\n      jump\t// in\n    tag_30:\n      mload(0x40)\n      tag_32\n      swap2\n      swap1\n      tag_33\n      jump\t// in\n    tag_32:\n      mload(0x40)\n      dup1\n      swap2\n      sub\n      swap1\n      return\n        /* \"contracts/BettingPool.sol\":620:646  uint256 public accruedFees */\n    tag_6:\n      callvalue\n      dup1\n      iszero\n      tag_34\n      jumpi\n      0x00\n      dup1\n      revert\n    tag_34:\n      pop\n      tag_35\n      tag_36\n      jump\t// in\n    tag_35:\n      mload(0x40)\n      tag_37\n      swap2\n      swap1\n      tag_33\n      jump\t// in\n    tag_37:\n      mload(0x40)\n      dup1\n      swap2\n      sub\n      swap1\n      return\n        /* \"contracts/BettingPool.sol\":682:723  IFlowUtilityToken public flowUtilityToken */\n    tag_7:\n      callvalue\n      dup1\n      iszero\n      tag_38\n      jumpi\n      0x00\n      dup1\n      revert\n    tag_38:\n      pop\n      tag_39\n      tag_40\n      jump\t// in\n    tag_39:\n      mload(0x40)\n      tag_41\n      swap2\n      swap1\n      tag_42\n      jump\t// in\n    tag_41:\n      mload(0x40)\n      dup1\n      swap2\n      sub\n      swap1\n      return\n        /* \"contracts/BettingPool.sol\":1117:1154  mapping(address => User) public users */\n    tag_8:\n      callvalue\n      dup1\n      iszero\n      tag_43\n      jumpi\n      0x00\n      dup1\n      revert\n    tag_43:\n      pop\n      tag_44\n      0x04\n      dup1\n      calldatasize\n      sub\n      dup2\n      add\n      swap1\n      tag_45\n      swap2\n      swap1\n      tag_46\n      jump\t// in\n    tag_45:\n      tag_47\n      jump\t// in\n    tag_44:\n      mload(0x40)\n      tag_48\n      swap3\n      swap2\n      swap1\n      tag_49\n      jump\t// in\n    tag_48:\n      mload(0x40)\n      dup1\n      swap2\n      sub\n      swap1\n      return\n        /* \"contracts/BettingPool.sol\":2987:3209  function withdrawAccruedFees() external onlyAdmin {... */\n    tag_9:\n      callvalue\n      dup1\n      iszero\n      tag_50\n      jumpi\n      0x00\n      dup1\n      revert\n    tag_50:\n      pop\n      tag_51\n      tag_52\n      jump\t// in\n    tag_51:\n      stop\n        /* \"contracts/BettingPool.sol\":2837:2979  function transferMoment(uint256 momentID, address recipient) external onlyAdmin {... */\n    tag_10:\n      callvalue\n      dup1\n      iszero\n      tag_53\n      jumpi\n      0x00\n      dup1\n      revert\n    tag_53:\n      pop\n      tag_54\n      0x04\n      dup1\n      calldatasize\n      sub\n      dup2\n      add\n      swap1\n      tag_55\n      swap2\n      swap1\n      tag_56\n      jump\t// in\n    tag_55:\n      tag_57\n      jump\t// in\n    tag_54:\n      stop\n        /* \"contracts/BettingPool.sol\":540:573  address public commissionsAddress */\n    tag_11:\n      callvalue\n      dup1\n      iszero\n      tag_58\n      jumpi\n      0x00\n      dup1\n      revert\n    tag_58:\n      pop\n      tag_59\n      tag_60\n      jump\t// in\n    tag_59:\n      mload(0x40)\n      tag_61\n      swap2\n      swap1\n      tag_62\n      jump\t// in\n    tag_61:\n      mload(0x40)\n      dup1\n      swap2\n      sub\n      swap1\n      return\n        /* \"contracts/BettingPool.sol\":1556:1817  function deposit() external payable {... */\n    tag_12:\n      tag_63\n      tag_64\n      jump\t// in\n    tag_63:\n      stop\n        /* \"contracts/BettingPool.sol\":653:673  address public admin */\n    tag_13:\n      callvalue\n      dup1\n      iszero\n      tag_65\n      jumpi\n      0x00\n      dup1\n      revert\n    tag_65:\n      pop\n      tag_66\n      tag_67\n      jump\t// in\n    tag_66:\n      mload(0x40)\n      tag_68\n      swap2\n      swap1\n      tag_62\n      jump\t// in\n    tag_68:\n      mload(0x40)\n      dup1\n      swap2\n      sub\n      swap1\n      return\n        /* \"contracts/BettingPool.sol\":1825:2185  function withdraw(uint256 amount) external {... */\n    tag_19:\n        /* \"contracts/BettingPool.sol\":1879:1896  User storage user */\n      0x00\n        /* \"contracts/BettingPool.sol\":1899:1904  users */\n      0x06\n        /* \"contracts/BettingPool.sol\":1899:1916  users[msg.sender] */\n      0x00\n        /* \"contracts/BettingPool.sol\":1905:1915  msg.sender */\n      caller\n        /* \"contracts/BettingPool.sol\":1899:1916  users[msg.sender] */\n      0xffffffffffffffffffffffffffffffffffffffff\n      and\n      0xffffffffffffffffffffffffffffffffffffffff\n      and\n      dup2\n      mstore\n      0x20\n      add\n      swap1\n      dup2\n      mstore\n      0x20\n      add\n      0x00\n      keccak256\n        /* \"contracts/BettingPool.sol\":1879:1916  User storage user = users[msg.sender] */\n      swap1\n      pop\n        /* \"contracts/BettingPool.sol\":1953:1959  amount */\n      dup2\n        /* \"contracts/BettingPool.sol\":1935:1939  user */\n      dup2\n        /* \"contracts/BettingPool.sol\":1935:1949  user.owedValue */\n      0x00\n      add\n      sload\n        /* \"contracts/BettingPool.sol\":1935:1959  user.owedValue >= amount */\n      lt\n      iszero\n        /* \"contracts/BettingPool.sol\":1927:1998  require(user.owedValue >= amount, \"Requested amount greater than owed\") */\n      tag_70\n      jumpi\n      mload(0x40)\n      0x08c379a000000000000000000000000000000000000000000000000000000000\n      dup2\n      mstore\n      0x04\n      add\n      tag_71\n      swap1\n      tag_72\n      jump\t// in\n    tag_71:\n      mload(0x40)\n      dup1\n      swap2\n      sub\n      swap1\n      revert\n    tag_70:\n        /* \"contracts/BettingPool.sol\":2025:2031  amount */\n      dup2\n        /* \"contracts/BettingPool.sol\":2009:2013  user */\n      dup2\n        /* \"contracts/BettingPool.sol\":2009:2021  user.balance */\n      0x01\n      add\n      0x00\n        /* \"contracts/BettingPool.sol\":2009:2031  user.balance -= amount */\n      dup3\n      dup3\n      sload\n      tag_73\n      swap2\n      swap1\n      tag_74\n      jump\t// in\n    tag_73:\n      swap3\n      pop\n      pop\n      dup2\n      swap1\n      sstore\n      pop\n        /* \"contracts/BettingPool.sol\":2060:2066  amount */\n      dup2\n        /* \"contracts/BettingPool.sol\":2042:2046  user */\n      dup2\n        /* \"contracts/BettingPool.sol\":2042:2056  user.owedValue */\n      0x00\n      add\n      0x00\n        /* \"contracts/BettingPool.sol\":2042:2066  user.owedValue -= amount */\n      dup3\n      dup3\n      sload\n      tag_75\n      swap2\n      swap1\n      tag_74\n      jump\t// in\n    tag_75:\n      swap3\n      pop\n      pop\n      dup2\n      swap1\n      sstore\n      pop\n        /* \"contracts/BettingPool.sol\":2085:2095  msg.sender */\n      caller\n        /* \"contracts/BettingPool.sol\":2077:2105  payable(msg.sender).transfer */\n      0xffffffffffffffffffffffffffffffffffffffff\n      and\n        /* \"contracts/BettingPool.sol\":2077:2113  payable(msg.sender).transfer(amount) */\n      0x08fc\n        /* \"contracts/BettingPool.sol\":2106:2112  amount */\n      dup4\n        /* \"contracts/BettingPool.sol\":2077:2113  payable(msg.sender).transfer(amount) */\n      swap1\n      dup2\n      iszero\n      mul\n      swap1\n      mload(0x40)\n      0x00\n      mload(0x40)\n      dup1\n      dup4\n      sub\n      dup2\n      dup6\n      dup9\n      dup9\n      call\n      swap4\n      pop\n      pop\n      pop\n      pop\n      iszero\n      dup1\n      iszero\n      tag_77\n      jumpi\n      returndatasize\n      0x00\n      dup1\n      returndatacopy\n      revert(0x00, returndatasize)\n    tag_77:\n      pop\n        /* \"contracts/BettingPool.sol\":2129:2177  Withdrawal(uint256(uint160(msg.sender)), amount) */\n      0xbf2ed60bd5b5965d685680c01195c9514e4382e28e3a5a2d2d5244bf59411b93\n        /* \"contracts/BettingPool.sol\":2156:2166  msg.sender */\n      caller\n        /* \"contracts/BettingPool.sol\":2140:2168  uint256(uint160(msg.sender)) */\n      0xffffffffffffffffffffffffffffffffffffffff\n      and\n        /* \"contracts/BettingPool.sol\":2170:2176  amount */\n      dup4\n        /* \"contracts/BettingPool.sol\":2129:2177  Withdrawal(uint256(uint160(msg.sender)), amount) */\n      mload(0x40)\n      tag_78\n      swap3\n      swap2\n      swap1\n      tag_49\n      jump\t// in\n    tag_78:\n      mload(0x40)\n      dup1\n      swap2\n      sub\n      swap1\n      log1\n        /* \"contracts/BettingPool.sol\":1868:2185  {... */\n      pop\n        /* \"contracts/BettingPool.sol\":1825:2185  function withdraw(uint256 amount) external {... */\n      pop\n      jump\t// out\n        /* \"contracts/BettingPool.sol\":2193:2829  function purchaseMoment(uint256 momentID) external onlyAdmin {... */\n    tag_23:\n        /* \"contracts/BettingPool.sol\":1504:1509  admin */\n      0x03\n      0x00\n      swap1\n      sload\n      swap1\n      0x0100\n      exp\n      swap1\n      div\n      0xffffffffffffffffffffffffffffffffffffffff\n      and\n        /* \"contracts/BettingPool.sol\":1490:1509  msg.sender == admin */\n      0xffffffffffffffffffffffffffffffffffffffff\n      and\n        /* \"contracts/BettingPool.sol\":1490:1500  msg.sender */\n      caller\n        /* \"contracts/BettingPool.sol\":1490:1509  msg.sender == admin */\n      0xffffffffffffffffffffffffffffffffffffffff\n      and\n      eq\n        /* \"contracts/BettingPool.sol\":1482:1528  require(msg.sender == admin, \"Not authorized\") */\n      tag_80\n      jumpi\n      mload(0x40)\n      0x08c379a000000000000000000000000000000000000000000000000000000000\n      dup2\n      mstore\n      0x04\n      add\n      tag_81\n      swap1\n      tag_82\n      jump\t// in\n    tag_81:\n      mload(0x40)\n      dup1\n      swap2\n      sub\n      swap1\n      revert\n    tag_80:\n        /* \"contracts/BettingPool.sol\":2265:2278  uint256 price */\n      0x00\n        /* \"contracts/BettingPool.sol\":2281:2288  topShot */\n      0x05\n      0x00\n      swap1\n      sload\n      swap1\n      0x0100\n      exp\n      swap1\n      div\n      0xffffffffffffffffffffffffffffffffffffffff\n      and\n        /* \"contracts/BettingPool.sol\":2281:2297  topShot.getPrice */\n      0xffffffffffffffffffffffffffffffffffffffff\n      and\n      0xe7572230\n        /* \"contracts/BettingPool.sol\":2298:2306  momentID */\n      dup4\n        /* \"contracts/BettingPool.sol\":2281:2307  topShot.getPrice(momentID) */\n      mload(0x40)\n      dup3\n      0xffffffff\n      and\n      0xe0\n      shl\n      dup2\n      mstore\n      0x04\n      add\n      tag_84\n      swap2\n      swap1\n      tag_33\n      jump\t// in\n    tag_84:\n      0x20\n      mload(0x40)\n      dup1\n      dup4\n      sub\n      dup2\n      dup7\n      gas\n      staticcall\n      iszero\n      dup1\n      iszero\n      tag_86\n      jumpi\n      returndatasize\n      0x00\n      dup1\n      returndatacopy\n      revert(0x00, returndatasize)\n    tag_86:\n      pop\n      pop\n      pop\n      pop\n      mload(0x40)\n      returndatasize\n      not(0x1f)\n      0x1f\n      dup3\n      add\n      and\n      dup3\n      add\n      dup1\n      0x40\n      mstore\n      pop\n      dup2\n      add\n      swap1\n      tag_87\n      swap2\n      swap1\n      tag_88\n      jump\t// in\n    tag_87:\n        /* \"contracts/BettingPool.sol\":2265:2307  uint256 price = topShot.getPrice(momentID) */\n      swap1\n      pop\n        /* \"contracts/BettingPool.sol\":2351:2356  price */\n      dup1\n        /* \"contracts/BettingPool.sol\":2326:2347  address(this).balance */\n      selfbalance\n        /* \"contracts/BettingPool.sol\":2326:2356  address(this).balance >= price */\n      lt\n      iszero\n        /* \"contracts/BettingPool.sol\":2318:2381  require(address(this).balance >= price, \"Insufficient balance\") */\n      tag_89\n      jumpi\n      mload(0x40)\n      0x08c379a000000000000000000000000000000000000000000000000000000000\n      dup2\n      mstore\n      0x04\n      add\n      tag_90\n      swap1\n      tag_91\n      jump\t// in\n    tag_90:\n      mload(0x40)\n      dup1\n      swap2\n      sub\n      swap1\n      revert\n    tag_89:\n        /* \"contracts/BettingPool.sol\":2394:2411  uint256 userCount */\n      0x00\n        /* \"contracts/BettingPool.sol\":2426:2443  uint256 totalOwed */\n      dup1\n        /* \"contracts/BettingPool.sol\":2463:2472  uint256 i */\n      0x00\n        /* \"contracts/BettingPool.sol\":2458:2654  for (uint256 i = 0; i < userCount; i++) {... */\n    tag_92:\n        /* \"contracts/BettingPool.sol\":2482:2491  userCount */\n      dup3\n        /* \"contracts/BettingPool.sol\":2478:2479  i */\n      dup2\n        /* \"contracts/BettingPool.sol\":2478:2491  i < userCount */\n      lt\n        /* \"contracts/BettingPool.sol\":2458:2654  for (uint256 i = 0; i < userCount; i++) {... */\n      iszero\n      tag_93\n      jumpi\n        /* \"contracts/BettingPool.sol\":2513:2530  User storage user */\n      0x00\n        /* \"contracts/BettingPool.sol\":2533:2538  users */\n      0x06\n        /* \"contracts/BettingPool.sol\":2533:2550  users[msg.sender] */\n      0x00\n        /* \"contracts/BettingPool.sol\":2539:2549  msg.sender */\n      caller\n        /* \"contracts/BettingPool.sol\":2533:2550  users[msg.sender] */\n      0xffffffffffffffffffffffffffffffffffffffff\n      and\n      0xffffffffffffffffffffffffffffffffffffffff\n      and\n      dup2\n      mstore\n      0x20\n      add\n      swap1\n      dup2\n      mstore\n      0x20\n      add\n      0x00\n      keccak256\n        /* \"contracts/BettingPool.sol\":2513:2550  User storage user = users[msg.sender] */\n      swap1\n      pop\n        /* \"contracts/BettingPool.sol\":2591:2600  userCount */\n      dup4\n        /* \"contracts/BettingPool.sol\":2583:2588  price */\n      dup6\n        /* \"contracts/BettingPool.sol\":2583:2600  price / userCount */\n      tag_95\n      swap2\n      swap1\n      tag_96\n      jump\t// in\n    tag_95:\n        /* \"contracts/BettingPool.sol\":2565:2569  user */\n      dup2\n        /* \"contracts/BettingPool.sol\":2565:2579  user.owedValue */\n      0x00\n      add\n      0x00\n        /* \"contracts/BettingPool.sol\":2565:2600  user.owedValue -= price / userCount */\n      dup3\n      dup3\n      sload\n      tag_97\n      swap2\n      swap1\n      tag_74\n      jump\t// in\n    tag_97:\n      swap3\n      pop\n      pop\n      dup2\n      swap1\n      sstore\n      pop\n        /* \"contracts/BettingPool.sol\":2628:2632  user */\n      dup1\n        /* \"contracts/BettingPool.sol\":2628:2642  user.owedValue */\n      0x00\n      add\n      sload\n        /* \"contracts/BettingPool.sol\":2615:2642  totalOwed += user.owedValue */\n      dup4\n      tag_98\n      swap2\n      swap1\n      tag_99\n      jump\t// in\n    tag_98:\n      swap3\n      pop\n        /* \"contracts/BettingPool.sol\":2498:2654  {... */\n      pop\n        /* \"contracts/BettingPool.sol\":2493:2496  i++ */\n      dup1\n      dup1\n      0x01\n      add\n      swap2\n      pop\n      pop\n        /* \"contracts/BettingPool.sol\":2458:2654  for (uint256 i = 0; i < userCount; i++) {... */\n      jump(tag_92)\n    tag_93:\n      pop\n        /* \"contracts/BettingPool.sol\":2708:2711  100 */\n      0x64\n        /* \"contracts/BettingPool.sol\":2690:2704  commissionRate */\n      sload(0x01)\n        /* \"contracts/BettingPool.sol\":2682:2687  price */\n      dup5\n        /* \"contracts/BettingPool.sol\":2682:2704  price * commissionRate */\n      tag_100\n      swap2\n      swap1\n      tag_101\n      jump\t// in\n    tag_100:\n        /* \"contracts/BettingPool.sol\":2681:2711  (price * commissionRate) / 100 */\n      tag_102\n      swap2\n      swap1\n      tag_96\n      jump\t// in\n    tag_102:\n        /* \"contracts/BettingPool.sol\":2666:2677  accruedFees */\n      0x02\n      0x00\n        /* \"contracts/BettingPool.sol\":2666:2711  accruedFees += (price * commissionRate) / 100 */\n      dup3\n      dup3\n      sload\n      tag_103\n      swap2\n      swap1\n      tag_99\n      jump\t// in\n    tag_103:\n      swap3\n      pop\n      pop\n      dup2\n      swap1\n      sstore\n      pop\n        /* \"contracts/BettingPool.sol\":2722:2729  topShot */\n      0x05\n      0x00\n      swap1\n      sload\n      swap1\n      0x0100\n      exp\n      swap1\n      div\n      0xffffffffffffffffffffffffffffffffffffffff\n      and\n        /* \"contracts/BettingPool.sol\":2722:2738  topShot.purchase */\n      0xffffffffffffffffffffffffffffffffffffffff\n      and\n      0xefef39a1\n        /* \"contracts/BettingPool.sol\":2746:2751  price */\n      dup5\n        /* \"contracts/BettingPool.sol\":2753:2761  momentID */\n      dup7\n        /* \"contracts/BettingPool.sol\":2722:2762  topShot.purchase{value: price}(momentID) */\n      mload(0x40)\n      dup4\n      0xffffffff\n      and\n      0xe0\n      shl\n      dup2\n      mstore\n      0x04\n      add\n      tag_104\n      swap2\n      swap1\n      tag_33\n      jump\t// in\n    tag_104:\n      0x20\n      mload(0x40)\n      dup1\n      dup4\n      sub\n      dup2\n      dup6\n      dup9\n      gas\n      call\n      iszero\n      dup1\n      iszero\n      tag_106\n      jumpi\n      returndatasize\n      0x00\n      dup1\n      returndatacopy\n      revert(0x00, returndatasize)\n    tag_106:\n      pop\n      pop\n      pop\n      pop\n      pop\n      mload(0x40)\n      returndatasize\n      not(0x1f)\n      0x1f\n      dup3\n      add\n      and\n      dup3\n      add\n      dup1\n      0x40\n      mstore\n      pop\n      dup2\n      add\n      swap1\n      tag_107\n      swap2\n      swap1\n      tag_88\n      jump\t// in\n    tag_107:\n      pop\n        /* \"contracts/BettingPool.sol\":2802:2809  topShot */\n      0x05\n      0x00\n      swap1\n      sload\n      swap1\n      0x0100\n      exp\n      swap1\n      div\n      0xffffffffffffffffffffffffffffffffffffffff\n      and\n        /* \"contracts/BettingPool.sol\":2778:2821  MomentPurchased(address(topShot), momentID) */\n      0xffffffffffffffffffffffffffffffffffffffff\n      and\n      0x3cb5a9431b7a53f5164349f28b2539f9c52bc4936a2eb0783c321e866056da29\n        /* \"contracts/BettingPool.sol\":2812:2820  momentID */\n      dup6\n        /* \"contracts/BettingPool.sol\":2778:2821  MomentPurchased(address(topShot), momentID) */\n      mload(0x40)\n      tag_108\n      swap2\n      swap1\n      tag_33\n      jump\t// in\n    tag_108:\n      mload(0x40)\n      dup1\n      swap2\n      sub\n      swap1\n      log2\n        /* \"contracts/BettingPool.sol\":2254:2829  {... */\n      pop\n      pop\n      pop\n        /* \"contracts/BettingPool.sol\":2193:2829  function purchaseMoment(uint256 momentID) external onlyAdmin {... */\n      pop\n      jump\t// out\n        /* \"contracts/BettingPool.sol\":730:753  ITopShot public topShot */\n    tag_26:\n      0x05\n      0x00\n      swap1\n      sload\n      swap1\n      0x0100\n      exp\n      swap1\n      div\n      0xffffffffffffffffffffffffffffffffffffffff\n      and\n      dup2\n      jump\t// out\n        /* \"contracts/BettingPool.sol\":580:613  uint256 public commissionRate = 5 */\n    tag_31:\n      sload(0x01)\n      dup2\n      jump\t// out\n        /* \"contracts/BettingPool.sol\":620:646  uint256 public accruedFees */\n    tag_36:\n      sload(0x02)\n      dup2\n      jump\t// out\n        /* \"contracts/BettingPool.sol\":682:723  IFlowUtilityToken public flowUtilityToken */\n    tag_40:\n      0x04\n      0x00\n      swap1\n      sload\n      swap1\n      0x0100\n      exp\n      swap1\n      div\n      0xffffffffffffffffffffffffffffffffffffffff\n      and\n      dup2\n      jump\t// out\n        /* \"contracts/BettingPool.sol\":1117:1154  mapping(address => User) public users */\n    tag_47:\n      mstore(0x20, 0x06)\n      dup1\n      0x00\n      mstore\n      keccak256(0x00, 0x40)\n      0x00\n      swap2\n      pop\n      swap1\n      pop\n      dup1\n      0x00\n      add\n      sload\n      swap1\n      dup1\n      0x01\n      add\n      sload\n      swap1\n      pop\n      dup3\n      jump\t// out\n        /* \"contracts/BettingPool.sol\":2987:3209  function withdrawAccruedFees() external onlyAdmin {... */\n    tag_52:\n        /* \"contracts/BettingPool.sol\":1504:1509  admin */\n      0x03\n      0x00\n      swap1\n      sload\n      swap1\n      0x0100\n      exp\n      swap1\n      div\n      0xffffffffffffffffffffffffffffffffffffffff\n      and\n        /* \"contracts/BettingPool.sol\":1490:1509  msg.sender == admin */\n      0xffffffffffffffffffffffffffffffffffffffff\n      and\n        /* \"contracts/BettingPool.sol\":1490:1500  msg.sender */\n      caller\n        /* \"contracts/BettingPool.sol\":1490:1509  msg.sender == admin */\n      0xffffffffffffffffffffffffffffffffffffffff\n      and\n      eq\n        /* \"contracts/BettingPool.sol\":1482:1528  require(msg.sender == admin, \"Not authorized\") */\n      tag_110\n      jumpi\n      mload(0x40)\n      0x08c379a000000000000000000000000000000000000000000000000000000000\n      dup2\n      mstore\n      0x04\n      add\n      tag_111\n      swap1\n      tag_82\n      jump\t// in\n    tag_111:\n      mload(0x40)\n      dup1\n      swap2\n      sub\n      swap1\n      revert\n    tag_110:\n        /* \"contracts/BettingPool.sol\":3048:3062  uint256 amount */\n      0x00\n        /* \"contracts/BettingPool.sol\":3065:3076  accruedFees */\n      sload(0x02)\n        /* \"contracts/BettingPool.sol\":3048:3076  uint256 amount = accruedFees */\n      swap1\n      pop\n        /* \"contracts/BettingPool.sol\":3101:3102  0 */\n      0x00\n        /* \"contracts/BettingPool.sol\":3087:3098  accruedFees */\n      0x02\n        /* \"contracts/BettingPool.sol\":3087:3102  accruedFees = 0 */\n      dup2\n      swap1\n      sstore\n      pop\n        /* \"contracts/BettingPool.sol\":3121:3139  commissionsAddress */\n      0x00\n      dup1\n      sload\n      swap1\n      0x0100\n      exp\n      swap1\n      div\n      0xffffffffffffffffffffffffffffffffffffffff\n      and\n        /* \"contracts/BettingPool.sol\":3113:3149  payable(commissionsAddress).transfer */\n      0xffffffffffffffffffffffffffffffffffffffff\n      and\n        /* \"contracts/BettingPool.sol\":3113:3157  payable(commissionsAddress).transfer(amount) */\n      0x08fc\n        /* \"contracts/BettingPool.sol\":3150:3156  amount */\n      dup3\n        /* \"contracts/BettingPool.sol\":3113:3157  payable(commissionsAddress).transfer(amount) */\n      swap1\n      dup2\n      iszero\n      mul\n      swap1\n      mload(0x40)\n      0x00\n      mload(0x40)\n      dup1\n      dup4\n      sub\n      dup2\n      dup6\n      dup9\n      dup9\n      call\n      swap4\n      pop\n      pop\n      pop\n      pop\n      iszero\n      dup1\n      iszero\n      tag_114\n      jumpi\n      returndatasize\n      0x00\n      dup1\n      returndatacopy\n      revert(0x00, returndatasize)\n    tag_114:\n      pop\n        /* \"contracts/BettingPool.sol\":3173:3201  AccruedFeesWithdrawn(amount) */\n      0x731a1521d96e312d418a6bc035ed3532ce30fe1a40899d911256e65bc6123092\n        /* \"contracts/BettingPool.sol\":3194:3200  amount */\n      dup2\n        /* \"contracts/BettingPool.sol\":3173:3201  AccruedFeesWithdrawn(amount) */\n      mload(0x40)\n      tag_115\n      swap2\n      swap1\n      tag_33\n      jump\t// in\n    tag_115:\n      mload(0x40)\n      dup1\n      swap2\n      sub\n      swap1\n      log1\n        /* \"contracts/BettingPool.sol\":3037:3209  {... */\n      pop\n        /* \"contracts/BettingPool.sol\":2987:3209  function withdrawAccruedFees() external onlyAdmin {... */\n      jump\t// out\n        /* \"contracts/BettingPool.sol\":2837:2979  function transferMoment(uint256 momentID, address recipient) external onlyAdmin {... */\n    tag_57:\n        /* \"contracts/BettingPool.sol\":1504:1509  admin */\n      0x03\n      0x00\n      swap1\n      sload\n      swap1\n      0x0100\n      exp\n      swap1\n      div\n      0xffffffffffffffffffffffffffffffffffffffff\n      and\n        /* \"contracts/BettingPool.sol\":1490:1509  msg.sender == admin */\n      0xffffffffffffffffffffffffffffffffffffffff\n      and\n        /* \"contracts/BettingPool.sol\":1490:1500  msg.sender */\n      caller\n        /* \"contracts/BettingPool.sol\":1490:1509  msg.sender == admin */\n      0xffffffffffffffffffffffffffffffffffffffff\n      and\n      eq\n        /* \"contracts/BettingPool.sol\":1482:1528  require(msg.sender == admin, \"Not authorized\") */\n      tag_117\n      jumpi\n      mload(0x40)\n      0x08c379a000000000000000000000000000000000000000000000000000000000\n      dup2\n      mstore\n      0x04\n      add\n      tag_118\n      swap1\n      tag_82\n      jump\t// in\n    tag_118:\n      mload(0x40)\n      dup1\n      swap2\n      sub\n      swap1\n      revert\n    tag_117:\n        /* \"contracts/BettingPool.sol\":2928:2935  topShot */\n      0x05\n      0x00\n      swap1\n      sload\n      swap1\n      0x0100\n      exp\n      swap1\n      div\n      0xffffffffffffffffffffffffffffffffffffffff\n      and\n        /* \"contracts/BettingPool.sol\":2928:2950  topShot.transferMoment */\n      0xffffffffffffffffffffffffffffffffffffffff\n      and\n      0xb4de8381\n        /* \"contracts/BettingPool.sol\":2951:2959  momentID */\n      dup4\n        /* \"contracts/BettingPool.sol\":2961:2970  recipient */\n      dup4\n        /* \"contracts/BettingPool.sol\":2928:2971  topShot.transferMoment(momentID, recipient) */\n      mload(0x40)\n      dup4\n      0xffffffff\n      and\n      0xe0\n      shl\n      dup2\n      mstore\n      0x04\n      add\n      tag_120\n      swap3\n      swap2\n      swap1\n      tag_121\n      jump\t// in\n    tag_120:\n      0x00\n      mload(0x40)\n      dup1\n      dup4\n      sub\n      dup2\n      0x00\n      dup8\n      dup1\n      extcodesize\n      iszero\n      dup1\n      iszero\n      tag_122\n      jumpi\n      0x00\n      dup1\n      revert\n    tag_122:\n      pop\n      gas\n      call\n      iszero\n      dup1\n      iszero\n      tag_124\n      jumpi\n      returndatasize\n      0x00\n      dup1\n      returndatacopy\n      revert(0x00, returndatasize)\n    tag_124:\n      pop\n      pop\n      pop\n      pop\n        /* \"contracts/BettingPool.sol\":2837:2979  function transferMoment(uint256 momentID, address recipient) external onlyAdmin {... */\n      pop\n      pop\n      jump\t// out\n        /* \"contracts/BettingPool.sol\":540:573  address public commissionsAddress */\n    tag_60:\n      0x00\n      dup1\n      sload\n      swap1\n      0x0100\n      exp\n      swap1\n      div\n      0xffffffffffffffffffffffffffffffffffffffff\n      and\n      dup2\n      jump\t// out\n        /* \"contracts/BettingPool.sol\":1556:1817  function deposit() external payable {... */\n    tag_64:\n        /* \"contracts/BettingPool.sol\":1603:1620  User storage user */\n      0x00\n        /* \"contracts/BettingPool.sol\":1623:1628  users */\n      0x06\n        /* \"contracts/BettingPool.sol\":1623:1640  users[msg.sender] */\n      0x00\n        /* \"contracts/BettingPool.sol\":1629:1639  msg.sender */\n      caller\n        /* \"contracts/BettingPool.sol\":1623:1640  users[msg.sender] */\n      0xffffffffffffffffffffffffffffffffffffffff\n      and\n      0xffffffffffffffffffffffffffffffffffffffff\n      and\n      dup2\n      mstore\n      0x20\n      add\n      swap1\n      dup2\n      mstore\n      0x20\n      add\n      0x00\n      keccak256\n        /* \"contracts/BettingPool.sol\":1603:1640  User storage user = users[msg.sender] */\n      swap1\n      pop\n        /* \"contracts/BettingPool.sol\":1667:1676  msg.value */\n      callvalue\n        /* \"contracts/BettingPool.sol\":1651:1655  user */\n      dup2\n        /* \"contracts/BettingPool.sol\":1651:1663  user.balance */\n      0x01\n      add\n      0x00\n        /* \"contracts/BettingPool.sol\":1651:1676  user.balance += msg.value */\n      dup3\n      dup3\n      sload\n      tag_126\n      swap2\n      swap1\n      tag_99\n      jump\t// in\n    tag_126:\n      swap3\n      pop\n      pop\n      dup2\n      swap1\n      sstore\n      pop\n        /* \"contracts/BettingPool.sol\":1742:1745  100 */\n      0x64\n        /* \"contracts/BettingPool.sol\":1724:1738  commissionRate */\n      sload(0x01)\n        /* \"contracts/BettingPool.sol\":1718:1721  100 */\n      0x64\n        /* \"contracts/BettingPool.sol\":1718:1738  100 - commissionRate */\n      tag_127\n      swap2\n      swap1\n      tag_74\n      jump\t// in\n    tag_127:\n        /* \"contracts/BettingPool.sol\":1705:1714  msg.value */\n      callvalue\n        /* \"contracts/BettingPool.sol\":1705:1739  msg.value * (100 - commissionRate) */\n      tag_128\n      swap2\n      swap1\n      tag_101\n      jump\t// in\n    tag_128:\n        /* \"contracts/BettingPool.sol\":1705:1745  msg.value * (100 - commissionRate) / 100 */\n      tag_129\n      swap2\n      swap1\n      tag_96\n      jump\t// in\n    tag_129:\n        /* \"contracts/BettingPool.sol\":1687:1691  user */\n      dup2\n        /* \"contracts/BettingPool.sol\":1687:1701  user.owedValue */\n      0x00\n      add\n      0x00\n        /* \"contracts/BettingPool.sol\":1687:1745  user.owedValue += msg.value * (100 - commissionRate) / 100 */\n      dup3\n      dup3\n      sload\n      tag_130\n      swap2\n      swap1\n      tag_99\n      jump\t// in\n    tag_130:\n      swap3\n      pop\n      pop\n      dup2\n      swap1\n      sstore\n      pop\n        /* \"contracts/BettingPool.sol\":1761:1809  Deposit(uint256(uint160(msg.sender)), msg.value) */\n      0xa3af609bf46297028ce551832669030f9effef2b02606d02cbbcc40fe6b47c55\n        /* \"contracts/BettingPool.sol\":1785:1795  msg.sender */\n      caller\n        /* \"contracts/BettingPool.sol\":1769:1797  uint256(uint160(msg.sender)) */\n      0xffffffffffffffffffffffffffffffffffffffff\n      and\n        /* \"contracts/BettingPool.sol\":1799:1808  msg.value */\n      callvalue\n        /* \"contracts/BettingPool.sol\":1761:1809  Deposit(uint256(uint160(msg.sender)), msg.value) */\n      mload(0x40)\n      tag_131\n      swap3\n      swap2\n      swap1\n      tag_49\n      jump\t// in\n    tag_131:\n      mload(0x40)\n      dup1\n      swap2\n      sub\n      swap1\n      log1\n        /* \"contracts/BettingPool.sol\":1592:1817  {... */\n      pop\n        /* \"contracts/BettingPool.sol\":1556:1817  function deposit() external payable {... */\n      jump\t// out\n        /* \"contracts/BettingPool.sol\":653:673  address public admin */\n    tag_67:\n      0x03\n      0x00\n      swap1\n      sload\n      swap1\n      0x0100\n      exp\n      swap1\n      div\n      0xffffffffffffffffffffffffffffffffffffffff\n      and\n      dup2\n      jump\t// out\n        /* \"#utility.yul\":88:205   */\n    tag_133:\n        /* \"#utility.yul\":197:198   */\n      0x00\n        /* \"#utility.yul\":194:195   */\n      dup1\n        /* \"#utility.yul\":187:199   */\n      revert\n        /* \"#utility.yul\":334:411   */\n    tag_135:\n        /* \"#utility.yul\":371:378   */\n      0x00\n        /* \"#utility.yul\":400:405   */\n      dup2\n        /* \"#utility.yul\":389:405   */\n      swap1\n      pop\n        /* \"#utility.yul\":334:411   */\n      swap2\n      swap1\n      pop\n      jump\t// out\n        /* \"#utility.yul\":417:539   */\n    tag_136:\n        /* \"#utility.yul\":490:514   */\n      tag_167\n        /* \"#utility.yul\":508:513   */\n      dup2\n        /* \"#utility.yul\":490:514   */\n      tag_135\n      jump\t// in\n    tag_167:\n        /* \"#utility.yul\":483:488   */\n      dup2\n        /* \"#utility.yul\":480:515   */\n      eq\n        /* \"#utility.yul\":470:533   */\n      tag_168\n      jumpi\n        /* \"#utility.yul\":529:530   */\n      0x00\n        /* \"#utility.yul\":526:527   */\n      dup1\n        /* \"#utility.yul\":519:531   */\n      revert\n        /* \"#utility.yul\":470:533   */\n    tag_168:\n        /* \"#utility.yul\":417:539   */\n      pop\n      jump\t// out\n        /* \"#utility.yul\":545:684   */\n    tag_137:\n        /* \"#utility.yul\":591:596   */\n      0x00\n        /* \"#utility.yul\":629:635   */\n      dup2\n        /* \"#utility.yul\":616:636   */\n      calldataload\n        /* \"#utility.yul\":607:636   */\n      swap1\n      pop\n        /* \"#utility.yul\":645:678   */\n      tag_170\n        /* \"#utility.yul\":672:677   */\n      dup2\n        /* \"#utility.yul\":645:678   */\n      tag_136\n      jump\t// in\n    tag_170:\n        /* \"#utility.yul\":545:684   */\n      swap3\n      swap2\n      pop\n      pop\n      jump\t// out\n        /* \"#utility.yul\":690:1019   */\n    tag_18:\n        /* \"#utility.yul\":749:755   */\n      0x00\n        /* \"#utility.yul\":798:800   */\n      0x20\n        /* \"#utility.yul\":786:795   */\n      dup3\n        /* \"#utility.yul\":777:784   */\n      dup5\n        /* \"#utility.yul\":773:796   */\n      sub\n        /* \"#utility.yul\":769:801   */\n      slt\n        /* \"#utility.yul\":766:885   */\n      iszero\n      tag_172\n      jumpi\n        /* \"#utility.yul\":804:883   */\n      tag_173\n      tag_133\n      jump\t// in\n    tag_173:\n        /* \"#utility.yul\":766:885   */\n    tag_172:\n        /* \"#utility.yul\":924:925   */\n      0x00\n        /* \"#utility.yul\":949:1002   */\n      tag_174\n        /* \"#utility.yul\":994:1001   */\n      dup5\n        /* \"#utility.yul\":985:991   */\n      dup3\n        /* \"#utility.yul\":974:983   */\n      dup6\n        /* \"#utility.yul\":970:992   */\n      add\n        /* \"#utility.yul\":949:1002   */\n      tag_137\n      jump\t// in\n    tag_174:\n        /* \"#utility.yul\":939:1002   */\n      swap2\n      pop\n        /* \"#utility.yul\":895:1012   */\n      pop\n        /* \"#utility.yul\":690:1019   */\n      swap3\n      swap2\n      pop\n      pop\n      jump\t// out\n        /* \"#utility.yul\":1025:1151   */\n    tag_138:\n        /* \"#utility.yul\":1062:1069   */\n      0x00\n        /* \"#utility.yul\":1102:1144   */\n      0xffffffffffffffffffffffffffffffffffffffff\n        /* \"#utility.yul\":1095:1100   */\n      dup3\n        /* \"#utility.yul\":1091:1145   */\n      and\n        /* \"#utility.yul\":1080:1145   */\n      swap1\n      pop\n        /* \"#utility.yul\":1025:1151   */\n      swap2\n      swap1\n      pop\n      jump\t// out\n        /* \"#utility.yul\":1157:1217   */\n    tag_139:\n        /* \"#utility.yul\":1185:1188   */\n      0x00\n        /* \"#utility.yul\":1206:1211   */\n      dup2\n        /* \"#utility.yul\":1199:1211   */\n      swap1\n      pop\n        /* \"#utility.yul\":1157:1217   */\n      swap2\n      swap1\n      pop\n      jump\t// out\n        /* \"#utility.yul\":1223:1365   */\n    tag_140:\n        /* \"#utility.yul\":1273:1282   */\n      0x00\n        /* \"#utility.yul\":1306:1359   */\n      tag_178\n        /* \"#utility.yul\":1324:1358   */\n      tag_179\n        /* \"#utility.yul\":1333:1357   */\n      tag_180\n        /* \"#utility.yul\":1351:1356   */\n      dup5\n        /* \"#utility.yul\":1333:1357   */\n      tag_138\n      jump\t// in\n    tag_180:\n        /* \"#utility.yul\":1324:1358   */\n      tag_139\n      jump\t// in\n    tag_179:\n        /* \"#utility.yul\":1306:1359   */\n      tag_138\n      jump\t// in\n    tag_178:\n        /* \"#utility.yul\":1293:1359   */\n      swap1\n      pop\n        /* \"#utility.yul\":1223:1365   */\n      swap2\n      swap1\n      pop\n      jump\t// out\n        /* \"#utility.yul\":1371:1497   */\n    tag_141:\n        /* \"#utility.yul\":1421:1430   */\n      0x00\n        /* \"#utility.yul\":1454:1491   */\n      tag_182\n        /* \"#utility.yul\":1485:1490   */\n      dup3\n        /* \"#utility.yul\":1454:1491   */\n      tag_140\n      jump\t// in\n    tag_182:\n        /* \"#utility.yul\":1441:1491   */\n      swap1\n      pop\n        /* \"#utility.yul\":1371:1497   */\n      swap2\n      swap1\n      pop\n      jump\t// out\n        /* \"#utility.yul\":1503:1644   */\n    tag_142:\n        /* \"#utility.yul\":1568:1577   */\n      0x00\n        /* \"#utility.yul\":1601:1638   */\n      tag_184\n        /* \"#utility.yul\":1632:1637   */\n      dup3\n        /* \"#utility.yul\":1601:1638   */\n      tag_141\n      jump\t// in\n    tag_184:\n        /* \"#utility.yul\":1588:1638   */\n      swap1\n      pop\n        /* \"#utility.yul\":1503:1644   */\n      swap2\n      swap1\n      pop\n      jump\t// out\n        /* \"#utility.yul\":1650:1811   */\n    tag_143:\n        /* \"#utility.yul\":1752:1804   */\n      tag_186\n        /* \"#utility.yul\":1798:1803   */\n      dup2\n        /* \"#utility.yul\":1752:1804   */\n      tag_142\n      jump\t// in\n    tag_186:\n        /* \"#utility.yul\":1747:1750   */\n      dup3\n        /* \"#utility.yul\":1740:1805   */\n      mstore\n        /* \"#utility.yul\":1650:1811   */\n      pop\n      pop\n      jump\t// out\n        /* \"#utility.yul\":1817:2069   */\n    tag_28:\n        /* \"#utility.yul\":1925:1929   */\n      0x00\n        /* \"#utility.yul\":1963:1965   */\n      0x20\n        /* \"#utility.yul\":1952:1961   */\n      dup3\n        /* \"#utility.yul\":1948:1966   */\n      add\n        /* \"#utility.yul\":1940:1966   */\n      swap1\n      pop\n        /* \"#utility.yul\":1976:2062   */\n      tag_188\n        /* \"#utility.yul\":2059:2060   */\n      0x00\n        /* \"#utility.yul\":2048:2057   */\n      dup4\n        /* \"#utility.yul\":2044:2061   */\n      add\n        /* \"#utility.yul\":2035:2041   */\n      dup5\n        /* \"#utility.yul\":1976:2062   */\n      tag_143\n      jump\t// in\n    tag_188:\n        /* \"#utility.yul\":1817:2069   */\n      swap3\n      swap2\n      pop\n      pop\n      jump\t// out\n        /* \"#utility.yul\":2075:2193   */\n    tag_144:\n        /* \"#utility.yul\":2162:2186   */\n      tag_190\n        /* \"#utility.yul\":2180:2185   */\n      dup2\n        /* \"#utility.yul\":2162:2186   */\n      tag_135\n      jump\t// in\n    tag_190:\n        /* \"#utility.yul\":2157:2160   */\n      dup3\n        /* \"#utility.yul\":2150:2187   */\n      mstore\n        /* \"#utility.yul\":2075:2193   */\n      pop\n      pop\n      jump\t// out\n        /* \"#utility.yul\":2199:2421   */\n    tag_33:\n        /* \"#utility.yul\":2292:2296   */\n      0x00\n        /* \"#utility.yul\":2330:2332   */\n      0x20\n        /* \"#utility.yul\":2319:2328   */\n      dup3\n        /* \"#utility.yul\":2315:2333   */\n      add\n        /* \"#utility.yul\":2307:2333   */\n      swap1\n      pop\n        /* \"#utility.yul\":2343:2414   */\n      tag_192\n        /* \"#utility.yul\":2411:2412   */\n      0x00\n        /* \"#utility.yul\":2400:2409   */\n      dup4\n        /* \"#utility.yul\":2396:2413   */\n      add\n        /* \"#utility.yul\":2387:2393   */\n      dup5\n        /* \"#utility.yul\":2343:2414   */\n      tag_144\n      jump\t// in\n    tag_192:\n        /* \"#utility.yul\":2199:2421   */\n      swap3\n      swap2\n      pop\n      pop\n      jump\t// out\n        /* \"#utility.yul\":2427:2577   */\n    tag_145:\n        /* \"#utility.yul\":2501:2510   */\n      0x00\n        /* \"#utility.yul\":2534:2571   */\n      tag_194\n        /* \"#utility.yul\":2565:2570   */\n      dup3\n        /* \"#utility.yul\":2534:2571   */\n      tag_141\n      jump\t// in\n    tag_194:\n        /* \"#utility.yul\":2521:2571   */\n      swap1\n      pop\n        /* \"#utility.yul\":2427:2577   */\n      swap2\n      swap1\n      pop\n      jump\t// out\n        /* \"#utility.yul\":2583:2762   */\n    tag_146:\n        /* \"#utility.yul\":2694:2755   */\n      tag_196\n        /* \"#utility.yul\":2749:2754   */\n      dup2\n        /* \"#utility.yul\":2694:2755   */\n      tag_145\n      jump\t// in\n    tag_196:\n        /* \"#utility.yul\":2689:2692   */\n      dup3\n        /* \"#utility.yul\":2682:2756   */\n      mstore\n        /* \"#utility.yul\":2583:2762   */\n      pop\n      pop\n      jump\t// out\n        /* \"#utility.yul\":2768:3038   */\n    tag_42:\n        /* \"#utility.yul\":2885:2889   */\n      0x00\n        /* \"#utility.yul\":2923:2925   */\n      0x20\n        /* \"#utility.yul\":2912:2921   */\n      dup3\n        /* \"#utility.yul\":2908:2926   */\n      add\n        /* \"#utility.yul\":2900:2926   */\n      swap1\n      pop\n        /* \"#utility.yul\":2936:3031   */\n      tag_198\n        /* \"#utility.yul\":3028:3029   */\n      0x00\n        /* \"#utility.yul\":3017:3026   */\n      dup4\n        /* \"#utility.yul\":3013:3030   */\n      add\n        /* \"#utility.yul\":3004:3010   */\n      dup5\n        /* \"#utility.yul\":2936:3031   */\n      tag_146\n      jump\t// in\n    tag_198:\n        /* \"#utility.yul\":2768:3038   */\n      swap3\n      swap2\n      pop\n      pop\n      jump\t// out\n        /* \"#utility.yul\":3044:3140   */\n    tag_147:\n        /* \"#utility.yul\":3081:3088   */\n      0x00\n        /* \"#utility.yul\":3110:3134   */\n      tag_200\n        /* \"#utility.yul\":3128:3133   */\n      dup3\n        /* \"#utility.yul\":3110:3134   */\n      tag_138\n      jump\t// in\n    tag_200:\n        /* \"#utility.yul\":3099:3134   */\n      swap1\n      pop\n        /* \"#utility.yul\":3044:3140   */\n      swap2\n      swap1\n      pop\n      jump\t// out\n        /* \"#utility.yul\":3146:3268   */\n    tag_148:\n        /* \"#utility.yul\":3219:3243   */\n      tag_202\n        /* \"#utility.yul\":3237:3242   */\n      dup2\n        /* \"#utility.yul\":3219:3243   */\n      tag_147\n      jump\t// in\n    tag_202:\n        /* \"#utility.yul\":3212:3217   */\n      dup2\n        /* \"#utility.yul\":3209:3244   */\n      eq\n        /* \"#utility.yul\":3199:3262   */\n      tag_203\n      jumpi\n        /* \"#utility.yul\":3258:3259   */\n      0x00\n        /* \"#utility.yul\":3255:3256   */\n      dup1\n        /* \"#utility.yul\":3248:3260   */\n      revert\n        /* \"#utility.yul\":3199:3262   */\n    tag_203:\n        /* \"#utility.yul\":3146:3268   */\n      pop\n      jump\t// out\n        /* \"#utility.yul\":3274:3413   */\n    tag_149:\n        /* \"#utility.yul\":3320:3325   */\n      0x00\n        /* \"#utility.yul\":3358:3364   */\n      dup2\n        /* \"#utility.yul\":3345:3365   */\n      calldataload\n        /* \"#utility.yul\":3336:3365   */\n      swap1\n      pop\n        /* \"#utility.yul\":3374:3407   */\n      tag_205\n        /* \"#utility.yul\":3401:3406   */\n      dup2\n        /* \"#utility.yul\":3374:3407   */\n      tag_148\n      jump\t// in\n    tag_205:\n        /* \"#utility.yul\":3274:3413   */\n      swap3\n      swap2\n      pop\n      pop\n      jump\t// out\n        /* \"#utility.yul\":3419:3748   */\n    tag_46:\n        /* \"#utility.yul\":3478:3484   */\n      0x00\n        /* \"#utility.yul\":3527:3529   */\n      0x20\n        /* \"#utility.yul\":3515:3524   */\n      dup3\n        /* \"#utility.yul\":3506:3513   */\n      dup5\n        /* \"#utility.yul\":3502:3525   */\n      sub\n        /* \"#utility.yul\":3498:3530   */\n      slt\n        /* \"#utility.yul\":3495:3614   */\n      iszero\n      tag_207\n      jumpi\n        /* \"#utility.yul\":3533:3612   */\n      tag_208\n      tag_133\n      jump\t// in\n    tag_208:\n        /* \"#utility.yul\":3495:3614   */\n    tag_207:\n        /* \"#utility.yul\":3653:3654   */\n      0x00\n        /* \"#utility.yul\":3678:3731   */\n      tag_209\n        /* \"#utility.yul\":3723:3730   */\n      dup5\n        /* \"#utility.yul\":3714:3720   */\n      dup3\n        /* \"#utility.yul\":3703:3712   */\n      dup6\n        /* \"#utility.yul\":3699:3721   */\n      add\n        /* \"#utility.yul\":3678:3731   */\n      tag_149\n      jump\t// in\n    tag_209:\n        /* \"#utility.yul\":3668:3731   */\n      swap2\n      pop\n        /* \"#utility.yul\":3624:3741   */\n      pop\n        /* \"#utility.yul\":3419:3748   */\n      swap3\n      swap2\n      pop\n      pop\n      jump\t// out\n        /* \"#utility.yul\":3754:4086   */\n    tag_49:\n        /* \"#utility.yul\":3875:3879   */\n      0x00\n        /* \"#utility.yul\":3913:3915   */\n      0x40\n        /* \"#utility.yul\":3902:3911   */\n      dup3\n        /* \"#utility.yul\":3898:3916   */\n      add\n        /* \"#utility.yul\":3890:3916   */\n      swap1\n      pop\n        /* \"#utility.yul\":3926:3997   */\n      tag_211\n        /* \"#utility.yul\":3994:3995   */\n      0x00\n        /* \"#utility.yul\":3983:3992   */\n      dup4\n        /* \"#utility.yul\":3979:3996   */\n      add\n        /* \"#utility.yul\":3970:3976   */\n      dup6\n        /* \"#utility.yul\":3926:3997   */\n      tag_144\n      jump\t// in\n    tag_211:\n        /* \"#utility.yul\":4007:4079   */\n      tag_212\n        /* \"#utility.yul\":4075:4077   */\n      0x20\n        /* \"#utility.yul\":4064:4073   */\n      dup4\n        /* \"#utility.yul\":4060:4078   */\n      add\n        /* \"#utility.yul\":4051:4057   */\n      dup5\n        /* \"#utility.yul\":4007:4079   */\n      tag_144\n      jump\t// in\n    tag_212:\n        /* \"#utility.yul\":3754:4086   */\n      swap4\n      swap3\n      pop\n      pop\n      pop\n      jump\t// out\n        /* \"#utility.yul\":4092:4566   */\n    tag_56:\n        /* \"#utility.yul\":4160:4166   */\n      0x00\n        /* \"#utility.yul\":4168:4174   */\n      dup1\n        /* \"#utility.yul\":4217:4219   */\n      0x40\n        /* \"#utility.yul\":4205:4214   */\n      dup4\n        /* \"#utility.yul\":4196:4203   */\n      dup6\n        /* \"#utility.yul\":4192:4215   */\n      sub\n        /* \"#utility.yul\":4188:4220   */\n      slt\n        /* \"#utility.yul\":4185:4304   */\n      iszero\n      tag_214\n      jumpi\n        /* \"#utility.yul\":4223:4302   */\n      tag_215\n      tag_133\n      jump\t// in\n    tag_215:\n        /* \"#utility.yul\":4185:4304   */\n    tag_214:\n        /* \"#utility.yul\":4343:4344   */\n      0x00\n        /* \"#utility.yul\":4368:4421   */\n      tag_216\n        /* \"#utility.yul\":4413:4420   */\n      dup6\n        /* \"#utility.yul\":4404:4410   */\n      dup3\n        /* \"#utility.yul\":4393:4402   */\n      dup7\n        /* \"#utility.yul\":4389:4411   */\n      add\n        /* \"#utility.yul\":4368:4421   */\n      tag_137\n      jump\t// in\n    tag_216:\n        /* \"#utility.yul\":4358:4421   */\n      swap3\n      pop\n        /* \"#utility.yul\":4314:4431   */\n      pop\n        /* \"#utility.yul\":4470:4472   */\n      0x20\n        /* \"#utility.yul\":4496:4549   */\n      tag_217\n        /* \"#utility.yul\":4541:4548   */\n      dup6\n        /* \"#utility.yul\":4532:4538   */\n      dup3\n        /* \"#utility.yul\":4521:4530   */\n      dup7\n        /* \"#utility.yul\":4517:4539   */\n      add\n        /* \"#utility.yul\":4496:4549   */\n      tag_149\n      jump\t// in\n    tag_217:\n        /* \"#utility.yul\":4486:4549   */\n      swap2\n      pop\n        /* \"#utility.yul\":4441:4559   */\n      pop\n        /* \"#utility.yul\":4092:4566   */\n      swap3\n      pop\n      swap3\n      swap1\n      pop\n      jump\t// out\n        /* \"#utility.yul\":4572:4690   */\n    tag_150:\n        /* \"#utility.yul\":4659:4683   */\n      tag_219\n        /* \"#utility.yul\":4677:4682   */\n      dup2\n        /* \"#utility.yul\":4659:4683   */\n      tag_147\n      jump\t// in\n    tag_219:\n        /* \"#utility.yul\":4654:4657   */\n      dup3\n        /* \"#utility.yul\":4647:4684   */\n      mstore\n        /* \"#utility.yul\":4572:4690   */\n      pop\n      pop\n      jump\t// out\n        /* \"#utility.yul\":4696:4918   */\n    tag_62:\n        /* \"#utility.yul\":4789:4793   */\n      0x00\n        /* \"#utility.yul\":4827:4829   */\n      0x20\n        /* \"#utility.yul\":4816:4825   */\n      dup3\n        /* \"#utility.yul\":4812:4830   */\n      add\n        /* \"#utility.yul\":4804:4830   */\n      swap1\n      pop\n        /* \"#utility.yul\":4840:4911   */\n      tag_221\n        /* \"#utility.yul\":4908:4909   */\n      0x00\n        /* \"#utility.yul\":4897:4906   */\n      dup4\n        /* \"#utility.yul\":4893:4910   */\n      add\n        /* \"#utility.yul\":4884:4890   */\n      dup5\n        /* \"#utility.yul\":4840:4911   */\n      tag_150\n      jump\t// in\n    tag_221:\n        /* \"#utility.yul\":4696:4918   */\n      swap3\n      swap2\n      pop\n      pop\n      jump\t// out\n        /* \"#utility.yul\":4924:5093   */\n    tag_151:\n        /* \"#utility.yul\":5008:5019   */\n      0x00\n        /* \"#utility.yul\":5042:5048   */\n      dup3\n        /* \"#utility.yul\":5037:5040   */\n      dup3\n        /* \"#utility.yul\":5030:5049   */\n      mstore\n        /* \"#utility.yul\":5082:5086   */\n      0x20\n        /* \"#utility.yul\":5077:5080   */\n      dup3\n        /* \"#utility.yul\":5073:5087   */\n      add\n        /* \"#utility.yul\":5058:5087   */\n      swap1\n      pop\n        /* \"#utility.yul\":4924:5093   */\n      swap3\n      swap2\n      pop\n      pop\n      jump\t// out\n        /* \"#utility.yul\":5099:5320   */\n    tag_152:\n        /* \"#utility.yul\":5239:5273   */\n      0x52657175657374656420616d6f756e742067726561746572207468616e206f77\n        /* \"#utility.yul\":5235:5236   */\n      0x00\n        /* \"#utility.yul\":5227:5233   */\n      dup3\n        /* \"#utility.yul\":5223:5237   */\n      add\n        /* \"#utility.yul\":5216:5274   */\n      mstore\n        /* \"#utility.yul\":5308:5312   */\n      0x6564000000000000000000000000000000000000000000000000000000000000\n        /* \"#utility.yul\":5303:5305   */\n      0x20\n        /* \"#utility.yul\":5295:5301   */\n      dup3\n        /* \"#utility.yul\":5291:5306   */\n      add\n        /* \"#utility.yul\":5284:5313   */\n      mstore\n        /* \"#utility.yul\":5099:5320   */\n      pop\n      jump\t// out\n        /* \"#utility.yul\":5326:5692   */\n    tag_153:\n        /* \"#utility.yul\":5468:5471   */\n      0x00\n        /* \"#utility.yul\":5489:5556   */\n      tag_225\n        /* \"#utility.yul\":5553:5555   */\n      0x22\n        /* \"#utility.yul\":5548:5551   */\n      dup4\n        /* \"#utility.yul\":5489:5556   */\n      tag_151\n      jump\t// in\n    tag_225:\n        /* \"#utility.yul\":5482:5556   */\n      swap2\n      pop\n        /* \"#utility.yul\":5565:5658   */\n      tag_226\n        /* \"#utility.yul\":5654:5657   */\n      dup3\n        /* \"#utility.yul\":5565:5658   */\n      tag_152\n      jump\t// in\n    tag_226:\n        /* \"#utility.yul\":5683:5685   */\n      0x40\n        /* \"#utility.yul\":5678:5681   */\n      dup3\n        /* \"#utility.yul\":5674:5686   */\n      add\n        /* \"#utility.yul\":5667:5686   */\n      swap1\n      pop\n        /* \"#utility.yul\":5326:5692   */\n      swap2\n      swap1\n      pop\n      jump\t// out\n        /* \"#utility.yul\":5698:6117   */\n    tag_72:\n        /* \"#utility.yul\":5864:5868   */\n      0x00\n        /* \"#utility.yul\":5902:5904   */\n      0x20\n        /* \"#utility.yul\":5891:5900   */\n      dup3\n        /* \"#utility.yul\":5887:5905   */\n      add\n        /* \"#utility.yul\":5879:5905   */\n      swap1\n      pop\n        /* \"#utility.yul\":5951:5960   */\n      dup2\n        /* \"#utility.yul\":5945:5949   */\n      dup2\n        /* \"#utility.yul\":5941:5961   */\n      sub\n        /* \"#utility.yul\":5937:5938   */\n      0x00\n        /* \"#utility.yul\":5926:5935   */\n      dup4\n        /* \"#utility.yul\":5922:5939   */\n      add\n        /* \"#utility.yul\":5915:5962   */\n      mstore\n        /* \"#utility.yul\":5979:6110   */\n      tag_228\n        /* \"#utility.yul\":6105:6109   */\n      dup2\n        /* \"#utility.yul\":5979:6110   */\n      tag_153\n      jump\t// in\n    tag_228:\n        /* \"#utility.yul\":5971:6110   */\n      swap1\n      pop\n        /* \"#utility.yul\":5698:6117   */\n      swap2\n      swap1\n      pop\n      jump\t// out\n        /* \"#utility.yul\":6123:6303   */\n    tag_154:\n        /* \"#utility.yul\":6171:6248   */\n      0x4e487b7100000000000000000000000000000000000000000000000000000000\n        /* \"#utility.yul\":6168:6169   */\n      0x00\n        /* \"#utility.yul\":6161:6249   */\n      mstore\n        /* \"#utility.yul\":6268:6272   */\n      0x11\n        /* \"#utility.yul\":6265:6266   */\n      0x04\n        /* \"#utility.yul\":6258:6273   */\n      mstore\n        /* \"#utility.yul\":6292:6296   */\n      0x24\n        /* \"#utility.yul\":6289:6290   */\n      0x00\n        /* \"#utility.yul\":6282:6297   */\n      revert\n        /* \"#utility.yul\":6309:6503   */\n    tag_74:\n        /* \"#utility.yul\":6349:6353   */\n      0x00\n        /* \"#utility.yul\":6369:6389   */\n      tag_231\n        /* \"#utility.yul\":6387:6388   */\n      dup3\n        /* \"#utility.yul\":6369:6389   */\n      tag_135\n      jump\t// in\n    tag_231:\n        /* \"#utility.yul\":6364:6389   */\n      swap2\n      pop\n        /* \"#utility.yul\":6403:6423   */\n      tag_232\n        /* \"#utility.yul\":6421:6422   */\n      dup4\n        /* \"#utility.yul\":6403:6423   */\n      tag_135\n      jump\t// in\n    tag_232:\n        /* \"#utility.yul\":6398:6423   */\n      swap3\n      pop\n        /* \"#utility.yul\":6447:6448   */\n      dup3\n        /* \"#utility.yul\":6444:6445   */\n      dup3\n        /* \"#utility.yul\":6440:6449   */\n      sub\n        /* \"#utility.yul\":6432:6449   */\n      swap1\n      pop\n        /* \"#utility.yul\":6471:6472   */\n      dup2\n        /* \"#utility.yul\":6465:6469   */\n      dup2\n        /* \"#utility.yul\":6462:6473   */\n      gt\n        /* \"#utility.yul\":6459:6496   */\n      iszero\n      tag_233\n      jumpi\n        /* \"#utility.yul\":6476:6494   */\n      tag_234\n      tag_154\n      jump\t// in\n    tag_234:\n        /* \"#utility.yul\":6459:6496   */\n    tag_233:\n        /* \"#utility.yul\":6309:6503   */\n      swap3\n      swap2\n      pop\n      pop\n      jump\t// out\n        /* \"#utility.yul\":6509:6673   */\n    tag_155:\n        /* \"#utility.yul\":6649:6665   */\n      0x4e6f7420617574686f72697a6564000000000000000000000000000000000000\n        /* \"#utility.yul\":6645:6646   */\n      0x00\n        /* \"#utility.yul\":6637:6643   */\n      dup3\n        /* \"#utility.yul\":6633:6647   */\n      add\n        /* \"#utility.yul\":6626:6666   */\n      mstore\n        /* \"#utility.yul\":6509:6673   */\n      pop\n      jump\t// out\n        /* \"#utility.yul\":6679:7045   */\n    tag_156:\n        /* \"#utility.yul\":6821:6824   */\n      0x00\n        /* \"#utility.yul\":6842:6909   */\n      tag_237\n        /* \"#utility.yul\":6906:6908   */\n      0x0e\n        /* \"#utility.yul\":6901:6904   */\n      dup4\n        /* \"#utility.yul\":6842:6909   */\n      tag_151\n      jump\t// in\n    tag_237:\n        /* \"#utility.yul\":6835:6909   */\n      swap2\n      pop\n        /* \"#utility.yul\":6918:7011   */\n      tag_238\n        /* \"#utility.yul\":7007:7010   */\n      dup3\n        /* \"#utility.yul\":6918:7011   */\n      tag_155\n      jump\t// in\n    tag_238:\n        /* \"#utility.yul\":7036:7038   */\n      0x20\n        /* \"#utility.yul\":7031:7034   */\n      dup3\n        /* \"#utility.yul\":7027:7039   */\n      add\n        /* \"#utility.yul\":7020:7039   */\n      swap1\n      pop\n        /* \"#utility.yul\":6679:7045   */\n      swap2\n      swap1\n      pop\n      jump\t// out\n        /* \"#utility.yul\":7051:7470   */\n    tag_82:\n        /* \"#utility.yul\":7217:7221   */\n      0x00\n        /* \"#utility.yul\":7255:7257   */\n      0x20\n        /* \"#utility.yul\":7244:7253   */\n      dup3\n        /* \"#utility.yul\":7240:7258   */\n      add\n        /* \"#utility.yul\":7232:7258   */\n      swap1\n      pop\n        /* \"#utility.yul\":7304:7313   */\n      dup2\n        /* \"#utility.yul\":7298:7302   */\n      dup2\n        /* \"#utility.yul\":7294:7314   */\n      sub\n        /* \"#utility.yul\":7290:7291   */\n      0x00\n        /* \"#utility.yul\":7279:7288   */\n      dup4\n        /* \"#utility.yul\":7275:7292   */\n      add\n        /* \"#utility.yul\":7268:7315   */\n      mstore\n        /* \"#utility.yul\":7332:7463   */\n      tag_240\n        /* \"#utility.yul\":7458:7462   */\n      dup2\n        /* \"#utility.yul\":7332:7463   */\n      tag_156\n      jump\t// in\n    tag_240:\n        /* \"#utility.yul\":7324:7463   */\n      swap1\n      pop\n        /* \"#utility.yul\":7051:7470   */\n      swap2\n      swap1\n      pop\n      jump\t// out\n        /* \"#utility.yul\":7476:7619   */\n    tag_157:\n        /* \"#utility.yul\":7533:7538   */\n      0x00\n        /* \"#utility.yul\":7564:7570   */\n      dup2\n        /* \"#utility.yul\":7558:7571   */\n      mload\n        /* \"#utility.yul\":7549:7571   */\n      swap1\n      pop\n        /* \"#utility.yul\":7580:7613   */\n      tag_242\n        /* \"#utility.yul\":7607:7612   */\n      dup2\n        /* \"#utility.yul\":7580:7613   */\n      tag_136\n      jump\t// in\n    tag_242:\n        /* \"#utility.yul\":7476:7619   */\n      swap3\n      swap2\n      pop\n      pop\n      jump\t// out\n        /* \"#utility.yul\":7625:7976   */\n    tag_88:\n        /* \"#utility.yul\":7695:7701   */\n      0x00\n        /* \"#utility.yul\":7744:7746   */\n      0x20\n        /* \"#utility.yul\":7732:7741   */\n      dup3\n        /* \"#utility.yul\":7723:7730   */\n      dup5\n        /* \"#utility.yul\":7719:7742   */\n      sub\n        /* \"#utility.yul\":7715:7747   */\n      slt\n        /* \"#utility.yul\":7712:7831   */\n      iszero\n      tag_244\n      jumpi\n        /* \"#utility.yul\":7750:7829   */\n      tag_245\n      tag_133\n      jump\t// in\n    tag_245:\n        /* \"#utility.yul\":7712:7831   */\n    tag_244:\n        /* \"#utility.yul\":7870:7871   */\n      0x00\n        /* \"#utility.yul\":7895:7959   */\n      tag_246\n        /* \"#utility.yul\":7951:7958   */\n      dup5\n        /* \"#utility.yul\":7942:7948   */\n      dup3\n        /* \"#utility.yul\":7931:7940   */\n      dup6\n        /* \"#utility.yul\":7927:7949   */\n      add\n        /* \"#utility.yul\":7895:7959   */\n      tag_157\n      jump\t// in\n    tag_246:\n        /* \"#utility.yul\":7885:7959   */\n      swap2\n      pop\n        /* \"#utility.yul\":7841:7969   */\n      pop\n        /* \"#utility.yul\":7625:7976   */\n      swap3\n      swap2\n      pop\n      pop\n      jump\t// out\n        /* \"#utility.yul\":7982:8152   */\n    tag_158:\n        /* \"#utility.yul\":8122:8144   */\n      0x496e73756666696369656e742062616c616e6365000000000000000000000000\n        /* \"#utility.yul\":8118:8119   */\n      0x00\n        /* \"#utility.yul\":8110:8116   */\n      dup3\n        /* \"#utility.yul\":8106:8120   */\n      add\n        /* \"#utility.yul\":8099:8145   */\n      mstore\n        /* \"#utility.yul\":7982:8152   */\n      pop\n      jump\t// out\n        /* \"#utility.yul\":8158:8524   */\n    tag_159:\n        /* \"#utility.yul\":8300:8303   */\n      0x00\n        /* \"#utility.yul\":8321:8388   */\n      tag_249\n        /* \"#utility.yul\":8385:8387   */\n      0x14\n        /* \"#utility.yul\":8380:8383   */\n      dup4\n        /* \"#utility.yul\":8321:8388   */\n      tag_151\n      jump\t// in\n    tag_249:\n        /* \"#utility.yul\":8314:8388   */\n      swap2\n      pop\n        /* \"#utility.yul\":8397:8490   */\n      tag_250\n        /* \"#utility.yul\":8486:8489   */\n      dup3\n        /* \"#utility.yul\":8397:8490   */\n      tag_158\n      jump\t// in\n    tag_250:\n        /* \"#utility.yul\":8515:8517   */\n      0x20\n        /* \"#utility.yul\":8510:8513   */\n      dup3\n        /* \"#utility.yul\":8506:8518   */\n      add\n        /* \"#utility.yul\":8499:8518   */\n      swap1\n      pop\n        /* \"#utility.yul\":8158:8524   */\n      swap2\n      swap1\n      pop\n      jump\t// out\n        /* \"#utility.yul\":8530:8949   */\n    tag_91:\n        /* \"#utility.yul\":8696:8700   */\n      0x00\n        /* \"#utility.yul\":8734:8736   */\n      0x20\n        /* \"#utility.yul\":8723:8732   */\n      dup3\n        /* \"#utility.yul\":8719:8737   */\n      add\n        /* \"#utility.yul\":8711:8737   */\n      swap1\n      pop\n        /* \"#utility.yul\":8783:8792   */\n      dup2\n        /* \"#utility.yul\":8777:8781   */\n      dup2\n        /* \"#utility.yul\":8773:8793   */\n      sub\n        /* \"#utility.yul\":8769:8770   */\n      0x00\n        /* \"#utility.yul\":8758:8767   */\n      dup4\n        /* \"#utility.yul\":8754:8771   */\n      add\n        /* \"#utility.yul\":8747:8794   */\n      mstore\n        /* \"#utility.yul\":8811:8942   */\n      tag_252\n        /* \"#utility.yul\":8937:8941   */\n      dup2\n        /* \"#utility.yul\":8811:8942   */\n      tag_159\n      jump\t// in\n    tag_252:\n        /* \"#utility.yul\":8803:8942   */\n      swap1\n      pop\n        /* \"#utility.yul\":8530:8949   */\n      swap2\n      swap1\n      pop\n      jump\t// out\n        /* \"#utility.yul\":8955:9135   */\n    tag_160:\n        /* \"#utility.yul\":9003:9080   */\n      0x4e487b7100000000000000000000000000000000000000000000000000000000\n        /* \"#utility.yul\":9000:9001   */\n      0x00\n        /* \"#utility.yul\":8993:9081   */\n      mstore\n        /* \"#utility.yul\":9100:9104   */\n      0x12\n        /* \"#utility.yul\":9097:9098   */\n      0x04\n        /* \"#utility.yul\":9090:9105   */\n      mstore\n        /* \"#utility.yul\":9124:9128   */\n      0x24\n        /* \"#utility.yul\":9121:9122   */\n      0x00\n        /* \"#utility.yul\":9114:9129   */\n      revert\n        /* \"#utility.yul\":9141:9326   */\n    tag_96:\n        /* \"#utility.yul\":9181:9182   */\n      0x00\n        /* \"#utility.yul\":9198:9218   */\n      tag_255\n        /* \"#utility.yul\":9216:9217   */\n      dup3\n        /* \"#utility.yul\":9198:9218   */\n      tag_135\n      jump\t// in\n    tag_255:\n        /* \"#utility.yul\":9193:9218   */\n      swap2\n      pop\n        /* \"#utility.yul\":9232:9252   */\n      tag_256\n        /* \"#utility.yul\":9250:9251   */\n      dup4\n        /* \"#utility.yul\":9232:9252   */\n      tag_135\n      jump\t// in\n    tag_256:\n        /* \"#utility.yul\":9227:9252   */\n      swap3\n      pop\n        /* \"#utility.yul\":9271:9272   */\n      dup3\n        /* \"#utility.yul\":9261:9296   */\n      tag_257\n      jumpi\n        /* \"#utility.yul\":9276:9294   */\n      tag_258\n      tag_160\n      jump\t// in\n    tag_258:\n        /* \"#utility.yul\":9261:9296   */\n    tag_257:\n        /* \"#utility.yul\":9318:9319   */\n      dup3\n        /* \"#utility.yul\":9315:9316   */\n      dup3\n        /* \"#utility.yul\":9311:9320   */\n      div\n        /* \"#utility.yul\":9306:9320   */\n      swap1\n      pop\n        /* \"#utility.yul\":9141:9326   */\n      swap3\n      swap2\n      pop\n      pop\n      jump\t// out\n        /* \"#utility.yul\":9332:9523   */\n    tag_99:\n        /* \"#utility.yul\":9372:9375   */\n      0x00\n        /* \"#utility.yul\":9391:9411   */\n      tag_260\n        /* \"#utility.yul\":9409:9410   */\n      dup3\n        /* \"#utility.yul\":9391:9411   */\n      tag_135\n      jump\t// in\n    tag_260:\n        /* \"#utility.yul\":9386:9411   */\n      swap2\n      pop\n        /* \"#utility.yul\":9425:9445   */\n      tag_261\n        /* \"#utility.yul\":9443:9444   */\n      dup4\n        /* \"#utility.yul\":9425:9445   */\n      tag_135\n      jump\t// in\n    tag_261:\n        /* \"#utility.yul\":9420:9445   */\n      swap3\n      pop\n        /* \"#utility.yul\":9468:9469   */\n      dup3\n        /* \"#utility.yul\":9465:9466   */\n      dup3\n        /* \"#utility.yul\":9461:9470   */\n      add\n        /* \"#utility.yul\":9454:9470   */\n      swap1\n      pop\n        /* \"#utility.yul\":9489:9492   */\n      dup1\n        /* \"#utility.yul\":9486:9487   */\n      dup3\n        /* \"#utility.yul\":9483:9493   */\n      gt\n        /* \"#utility.yul\":9480:9516   */\n      iszero\n      tag_262\n      jumpi\n        /* \"#utility.yul\":9496:9514   */\n      tag_263\n      tag_154\n      jump\t// in\n    tag_263:\n        /* \"#utility.yul\":9480:9516   */\n    tag_262:\n        /* \"#utility.yul\":9332:9523   */\n      swap3\n      swap2\n      pop\n      pop\n      jump\t// out\n        /* \"#utility.yul\":9529:9939   */\n    tag_101:\n        /* \"#utility.yul\":9569:9576   */\n      0x00\n        /* \"#utility.yul\":9592:9612   */\n      tag_265\n        /* \"#utility.yul\":9610:9611   */\n      dup3\n        /* \"#utility.yul\":9592:9612   */\n      tag_135\n      jump\t// in\n    tag_265:\n        /* \"#utility.yul\":9587:9612   */\n      swap2\n      pop\n        /* \"#utility.yul\":9626:9646   */\n      tag_266\n        /* \"#utility.yul\":9644:9645   */\n      dup4\n        /* \"#utility.yul\":9626:9646   */\n      tag_135\n      jump\t// in\n    tag_266:\n        /* \"#utility.yul\":9621:9646   */\n      swap3\n      pop\n        /* \"#utility.yul\":9681:9682   */\n      dup3\n        /* \"#utility.yul\":9678:9679   */\n      dup3\n        /* \"#utility.yul\":9674:9683   */\n      mul\n        /* \"#utility.yul\":9703:9733   */\n      tag_267\n        /* \"#utility.yul\":9721:9732   */\n      dup2\n        /* \"#utility.yul\":9703:9733   */\n      tag_135\n      jump\t// in\n    tag_267:\n        /* \"#utility.yul\":9692:9733   */\n      swap2\n      pop\n        /* \"#utility.yul\":9882:9883   */\n      dup3\n        /* \"#utility.yul\":9873:9880   */\n      dup3\n        /* \"#utility.yul\":9869:9884   */\n      div\n        /* \"#utility.yul\":9866:9867   */\n      dup5\n        /* \"#utility.yul\":9863:9885   */\n      eq\n        /* \"#utility.yul\":9843:9844   */\n      dup4\n        /* \"#utility.yul\":9836:9845   */\n      iszero\n        /* \"#utility.yul\":9816:9899   */\n      or\n        /* \"#utility.yul\":9793:9932   */\n      tag_268\n      jumpi\n        /* \"#utility.yul\":9912:9930   */\n      tag_269\n      tag_154\n      jump\t// in\n    tag_269:\n        /* \"#utility.yul\":9793:9932   */\n    tag_268:\n        /* \"#utility.yul\":9577:9939   */\n      pop\n        /* \"#utility.yul\":9529:9939   */\n      swap3\n      swap2\n      pop\n      pop\n      jump\t// out\n        /* \"#utility.yul\":9945:10277   */\n    tag_121:\n        /* \"#utility.yul\":10066:10070   */\n      0x00\n        /* \"#utility.yul\":10104:10106   */\n      0x40\n        /* \"#utility.yul\":10093:10102   */\n      dup3\n        /* \"#utility.yul\":10089:10107   */\n      add\n        /* \"#utility.yul\":10081:10107   */\n      swap1\n      pop\n        /* \"#utility.yul\":10117:10188   */\n      tag_271\n        /* \"#utility.yul\":10185:10186   */\n      0x00\n        /* \"#utility.yul\":10174:10183   */\n      dup4\n        /* \"#utility.yul\":10170:10187   */\n      add\n        /* \"#utility.yul\":10161:10167   */\n      dup6\n        /* \"#utility.yul\":10117:10188   */\n      tag_144\n      jump\t// in\n    tag_271:\n        /* \"#utility.yul\":10198:10270   */\n      tag_272\n        /* \"#utility.yul\":10266:10268   */\n      0x20\n        /* \"#utility.yul\":10255:10264   */\n      dup4\n        /* \"#utility.yul\":10251:10269   */\n      add\n        /* \"#utility.yul\":10242:10248   */\n      dup5\n        /* \"#utility.yul\":10198:10270   */\n      tag_150\n      jump\t// in\n    tag_272:\n        /* \"#utility.yul\":9945:10277   */\n      swap4\n      swap3\n      pop\n      pop\n      pop\n      jump\t// out\n\n    auxdata: 0xa26469706673582212206ed59d8b2dfc47a38c4da4cd8007b8c910c7ac028e97e61eb86f17d31dee438264736f6c634300081a0033\n}\n",
        "bytecode": {
          "linkReferences": {},
          "object": "60806040526005600155348015610014575f80fd5b506040516112853803806112858339818101604052810190610036919061019b565b825f806101000a81548173ffffffffffffffffffffffffffffffffffffffff021916908373ffffffffffffffffffffffffffffffffffffffff1602179055503360035f6101000a81548173ffffffffffffffffffffffffffffffffffffffff021916908373ffffffffffffffffffffffffffffffffffffffff1602179055508160045f6101000a81548173ffffffffffffffffffffffffffffffffffffffff021916908373ffffffffffffffffffffffffffffffffffffffff1602179055508060055f6101000a81548173ffffffffffffffffffffffffffffffffffffffff021916908373ffffffffffffffffffffffffffffffffffffffff1602179055505050506101eb565b5f80fd5b5f73ffffffffffffffffffffffffffffffffffffffff82169050919050565b5f61016a82610141565b9050919050565b61017a81610160565b8114610184575f80fd5b50565b5f8151905061019581610171565b92915050565b5f805f606084860312156101b2576101b161013d565b5b5f6101bf86828701610187565b93505060206101d086828701610187565b92505060406101e186828701610187565b9150509250925092565b61108d806101f85f395ff3fe6080604052600436106100a6575f3560e01c8063a87430ba11610063578063a87430ba146101a2578063ada82c7d146101df578063b4de8381146101f5578063c29785cc1461021d578063d0e30db014610247578063f851a44014610251576100a6565b80632e1a7d4d146100aa57806341eb7307146100d25780635028227c146100fa5780635ea1d6f814610124578063682c20581461014e5780636e16181014610178575b5f80fd5b3480156100b5575f80fd5b506100d060048036038101906100cb9190610b40565b61027b565b005b3480156100dd575f80fd5b506100f860048036038101906100f39190610b40565b6103cb565b005b348015610105575f80fd5b5061010e61070c565b60405161011b9190610be5565b60405180910390f35b34801561012f575f80fd5b50610138610731565b6040516101459190610c0d565b60405180910390f35b348015610159575f80fd5b50610162610737565b60405161016f9190610c0d565b60405180910390f35b348015610183575f80fd5b5061018c61073d565b6040516101999190610c46565b60405180910390f35b3480156101ad575f80fd5b506101c860048036038101906101c39190610c9a565b610762565b6040516101d6929190610cc5565b60405180910390f35b3480156101ea575f80fd5b506101f3610782565b005b348015610200575f80fd5b5061021b60048036038101906102169190610cec565b6108bb565b005b348015610228575f80fd5b506102316109d7565b60405161023e9190610d39565b60405180910390f35b61024f6109fa565b005b34801561025c575f80fd5b50610265610ae4565b6040516102729190610d39565b60405180910390f35b5f60065f3373ffffffffffffffffffffffffffffffffffffffff1673ffffffffffffffffffffffffffffffffffffffff1681526020019081526020015f20905081815f01541015610301576040517f08c379a00000000000000000000000000000000000000000000000000000000081526004016102f890610dd2565b60405180910390fd5b81816001015f8282546103149190610e1d565b9250508190555081815f015f82825461032d9190610e1d565b925050819055503373ffffffffffffffffffffffffffffffffffffffff166108fc8390811502906040515f60405180830381858888f19350505050158015610377573d5f803e3d5ffd5b507fbf2ed60bd5b5965d685680c01195c9514e4382e28e3a5a2d2d5244bf59411b933373ffffffffffffffffffffffffffffffffffffffff16836040516103bf929190610cc5565b60405180910390a15050565b60035f9054906101000a900473ffffffffffffffffffffffffffffffffffffffff1673ffffffffffffffffffffffffffffffffffffffff163373ffffffffffffffffffffffffffffffffffffffff161461045a576040517f08c379a000000000000000000000000000000000000000000000000000000000815260040161045190610e9a565b60405180910390fd5b5f60055f9054906101000a900473ffffffffffffffffffffffffffffffffffffffff1673ffffffffffffffffffffffffffffffffffffffff1663e7572230836040518263ffffffff1660e01b81526004016104b59190610c0d565b602060405180830381865afa1580156104d0573d5f803e3d5ffd5b505050506040513d601f19601f820116820180604052508101906104f49190610ecc565b905080471015610539576040517f08c379a000000000000000000000000000000000000000000000000000000000815260040161053090610f41565b60405180910390fd5b5f805f5b828110156105c8575f60065f3373ffffffffffffffffffffffffffffffffffffffff1673ffffffffffffffffffffffffffffffffffffffff1681526020019081526020015f20905083856105919190610f8c565b815f015f8282546105a29190610e1d565b92505081905550805f0154836105b89190610fbc565b925050808060010191505061053d565b506064600154846105d99190610fef565b6105e39190610f8c565b60025f8282546105f39190610fbc565b9250508190555060055f9054906101000a900473ffffffffffffffffffffffffffffffffffffffff1673ffffffffffffffffffffffffffffffffffffffff1663efef39a184866040518363ffffffff1660e01b81526004016106559190610c0d565b60206040518083038185885af1158015610671573d5f803e3d5ffd5b50505050506040513d601f19601f820116820180604052508101906106969190610ecc565b5060055f9054906101000a900473ffffffffffffffffffffffffffffffffffffffff1673ffffffffffffffffffffffffffffffffffffffff167f3cb5a9431b7a53f5164349f28b2539f9c52bc4936a2eb0783c321e866056da29856040516106fe9190610c0d565b60405180910390a250505050565b60055f9054906101000a900473ffffffffffffffffffffffffffffffffffffffff1681565b60015481565b60025481565b60045f9054906101000a900473ffffffffffffffffffffffffffffffffffffffff1681565b6006602052805f5260405f205f91509050805f0154908060010154905082565b60035f9054906101000a900473ffffffffffffffffffffffffffffffffffffffff1673ffffffffffffffffffffffffffffffffffffffff163373ffffffffffffffffffffffffffffffffffffffff1614610811576040517f08c379a000000000000000000000000000000000000000000000000000000000815260040161080890610e9a565b60405180910390fd5b5f60025490505f6002819055505f8054906101000a900473ffffffffffffffffffffffffffffffffffffffff1673ffffffffffffffffffffffffffffffffffffffff166108fc8290811502906040515f60405180830381858888f19350505050158015610880573d5f803e3d5ffd5b507f731a1521d96e312d418a6bc035ed3532ce30fe1a40899d911256e65bc6123092816040516108b09190610c0d565b60405180910390a150565b60035f9054906101000a900473ffffffffffffffffffffffffffffffffffffffff1673ffffffffffffffffffffffffffffffffffffffff163373ffffffffffffffffffffffffffffffffffffffff161461094a576040517f08c379a000000000000000000000000000000000000000000000000000000000815260040161094190610e9a565b60405180910390fd5b60055f9054906101000a900473ffffffffffffffffffffffffffffffffffffffff1673ffffffffffffffffffffffffffffffffffffffff1663b4de838183836040518363ffffffff1660e01b81526004016109a6929190611030565b5f604051808303815f87803b1580156109bd575f80fd5b505af11580156109cf573d5f803e3d5ffd5b505050505050565b5f8054906101000a900473ffffffffffffffffffffffffffffffffffffffff1681565b5f60065f3373ffffffffffffffffffffffffffffffffffffffff1673ffffffffffffffffffffffffffffffffffffffff1681526020019081526020015f20905034816001015f828254610a4d9190610fbc565b9250508190555060646001546064610a659190610e1d565b34610a709190610fef565b610a7a9190610f8c565b815f015f828254610a8b9190610fbc565b925050819055507fa3af609bf46297028ce551832669030f9effef2b02606d02cbbcc40fe6b47c553373ffffffffffffffffffffffffffffffffffffffff1634604051610ad9929190610cc5565b60405180910390a150565b60035f9054906101000a900473ffffffffffffffffffffffffffffffffffffffff1681565b5f80fd5b5f819050919050565b610b1f81610b0d565b8114610b29575f80fd5b50565b5f81359050610b3a81610b16565b92915050565b5f60208284031215610b5557610b54610b09565b5b5f610b6284828501610b2c565b91505092915050565b5f73ffffffffffffffffffffffffffffffffffffffff82169050919050565b5f819050919050565b5f610bad610ba8610ba384610b6b565b610b8a565b610b6b565b9050919050565b5f610bbe82610b93565b9050919050565b5f610bcf82610bb4565b9050919050565b610bdf81610bc5565b82525050565b5f602082019050610bf85f830184610bd6565b92915050565b610c0781610b0d565b82525050565b5f602082019050610c205f830184610bfe565b92915050565b5f610c3082610bb4565b9050919050565b610c4081610c26565b82525050565b5f602082019050610c595f830184610c37565b92915050565b5f610c6982610b6b565b9050919050565b610c7981610c5f565b8114610c83575f80fd5b50565b5f81359050610c9481610c70565b92915050565b5f60208284031215610caf57610cae610b09565b5b5f610cbc84828501610c86565b91505092915050565b5f604082019050610cd85f830185610bfe565b610ce56020830184610bfe565b9392505050565b5f8060408385031215610d0257610d01610b09565b5b5f610d0f85828601610b2c565b9250506020610d2085828601610c86565b9150509250929050565b610d3381610c5f565b82525050565b5f602082019050610d4c5f830184610d2a565b92915050565b5f82825260208201905092915050565b7f52657175657374656420616d6f756e742067726561746572207468616e206f775f8201527f6564000000000000000000000000000000000000000000000000000000000000602082015250565b5f610dbc602283610d52565b9150610dc782610d62565b604082019050919050565b5f6020820190508181035f830152610de981610db0565b9050919050565b7f4e487b71000000000000000000000000000000000000000000000000000000005f52601160045260245ffd5b5f610e2782610b0d565b9150610e3283610b0d565b9250828203905081811115610e4a57610e49610df0565b5b92915050565b7f4e6f7420617574686f72697a65640000000000000000000000000000000000005f82015250565b5f610e84600e83610d52565b9150610e8f82610e50565b602082019050919050565b5f6020820190508181035f830152610eb181610e78565b9050919050565b5f81519050610ec681610b16565b92915050565b5f60208284031215610ee157610ee0610b09565b5b5f610eee84828501610eb8565b91505092915050565b7f496e73756666696369656e742062616c616e63650000000000000000000000005f82015250565b5f610f2b601483610d52565b9150610f3682610ef7565b602082019050919050565b5f6020820190508181035f830152610f5881610f1f565b9050919050565b7f4e487b71000000000000000000000000000000000000000000000000000000005f52601260045260245ffd5b5f610f9682610b0d565b9150610fa183610b0d565b925082610fb157610fb0610f5f565b5b828204905092915050565b5f610fc682610b0d565b9150610fd183610b0d565b9250828201905080821115610fe957610fe8610df0565b5b92915050565b5f610ff982610b0d565b915061100483610b0d565b925082820261101281610b0d565b9150828204841483151761102957611028610df0565b5b5092915050565b5f6040820190506110435f830185610bfe565b6110506020830184610d2a565b939250505056fea26469706673582212206ed59d8b2dfc47a38c4da4cd8007b8c910c7ac028e97e61eb86f17d31dee438264736f6c634300081a0033",
          "opcodes": "PUSH1 0x80 PUSH1 0x40 MSTORE PUSH1 0x5 PUSH1 0x1 SSTORE CALLVALUE DUP1 ISZERO PUSH2 0x14 JUMPI PUSH0 DUP1 REVERT JUMPDEST POP PUSH1 0x40 MLOAD PUSH2 0x1285 CODESIZE SUB DUP1 PUSH2 0x1285 DUP4 CODECOPY DUP2 DUP2 ADD PUSH1 0x40 MSTORE DUP2 ADD SWAP1 PUSH2 0x36 SWAP2 SWAP1 PUSH2 0x19B JUMP JUMPDEST DUP3 PUSH0 DUP1 PUSH2 0x100 EXP DUP2 SLOAD DUP2 PUSH20 0xFFFFFFFFFFFFFFFFFFFFFFFFFFFFFFFFFFFFFFFF MUL NOT AND SWAP1 DUP4 PUSH20 0xFFFFFFFFFFFFFFFFFFFFFFFFFFFFFFFFFFFFFFFF AND MUL OR SWAP1 SSTORE POP CALLER PUSH1 0x3 PUSH0 PUSH2 0x100 EXP DUP2 SLOAD DUP2 PUSH20 0xFFFFFFFFFFFFFFFFFFFFFFFFFFFFFFFFFFFFFFFF MUL NOT AND SWAP1 DUP4 PUSH20 0xFFFFFFFFFFFFFFFFFFFFFFFFFFFFFFFFFFFFFFFF AND MUL OR SWAP1 SSTORE POP DUP2 PUSH1 0x4 PUSH0 PUSH2 0x100 EXP DUP2 SLOAD DUP2 PUSH20 0xFFFFFFFFFFFFFFFFFFFFFFFFFFFFFFFFFFFFFFFF MUL NOT AND SWAP1 DUP4 PUSH20 0xFFFFFFFFFFFFFFFFFFFFFFFFFFFFFFFFFFFFFFFF AND MUL OR SWAP1 SSTORE POP DUP1 PUSH1 0x5 PUSH0 PUSH2 0x100 EXP DUP2 SLOAD DUP2 PUSH20 0xFFFFFFFFFFFFFFFFFFFFFFFFFFFFFFFFFFFFFFFF MUL NOT AND SWAP1 DUP4 PUSH20 0xFFFFFFFFFFFFFFFFFFFFFFFFFFFFFFFFFFFFFFFF AND MUL OR SWAP1 SSTORE POP POP POP POP PUSH2 0x1EB JUMP JUMPDEST PUSH0 DUP1 REVERT JUMPDEST PUSH0 PUSH20 0xFFFFFFFFFFFFFFFFFFFFFFFFFFFFFFFFFFFFFFFF DUP3 AND SWAP1 POP SWAP2 SWAP1 POP JUMP JUMPDEST PUSH0 PUSH2 0x16A DUP3 PUSH2 0x141 JUMP JUMPDEST SWAP1 POP SWAP2 SWAP1 POP JUMP JUMPDEST PUSH2 0x17A DUP2 PUSH2 0x160 JUMP JUMPDEST DUP2 EQ PUSH2 0x184 JUMPI PUSH0 DUP1 REVERT JUMPDEST POP JUMP JUMPDEST PUSH0 DUP2 MLOAD SWAP1 POP PUSH2 0x195 DUP2 PUSH2 0x171 JUMP JUMPDEST SWAP3 SWAP2 POP POP JUMP JUMPDEST PUSH0 DUP1 PUSH0 PUSH1 0x60 DUP5 DUP7 SUB SLT ISZERO PUSH2 0x1B2 JUMPI PUSH2 0x1B1 PUSH2 0x13D JUMP JUMPDEST JUMPDEST PUSH0 PUSH2 0x1BF DUP7 DUP3 DUP8 ADD PUSH2 0x187 JUMP JUMPDEST SWAP4 POP POP PUSH1 0x20 PUSH2 0x1D0 DUP7 DUP3 DUP8 ADD PUSH2 0x187 JUMP JUMPDEST SWAP3 POP POP PUSH1 0x40 PUSH2 0x1E1 DUP7 DUP3 DUP8 ADD PUSH2 0x187 JUMP JUMPDEST SWAP2 POP POP SWAP3 POP SWAP3 POP SWAP3 JUMP JUMPDEST PUSH2 0x108D DUP1 PUSH2 0x1F8 PUSH0 CODECOPY PUSH0 RETURN INVALID PUSH1 0x80 PUSH1 0x40 MSTORE PUSH1 0x4 CALLDATASIZE LT PUSH2 0xA6 JUMPI PUSH0 CALLDATALOAD PUSH1 0xE0 SHR DUP1 PUSH4 0xA87430BA GT PUSH2 0x63 JUMPI DUP1 PUSH4 0xA87430BA EQ PUSH2 0x1A2 JUMPI DUP1 PUSH4 0xADA82C7D EQ PUSH2 0x1DF JUMPI DUP1 PUSH4 0xB4DE8381 EQ PUSH2 0x1F5 JUMPI DUP1 PUSH4 0xC29785CC EQ PUSH2 0x21D JUMPI DUP1 PUSH4 0xD0E30DB0 EQ PUSH2 0x247 JUMPI DUP1 PUSH4 0xF851A440 EQ PUSH2 0x251 JUMPI PUSH2 0xA6 JUMP JUMPDEST DUP1 PUSH4 0x2E1A7D4D EQ PUSH2 0xAA JUMPI DUP1 PUSH4 0x41EB7307 EQ PUSH2 0xD2 JUMPI DUP1 PUSH4 0x5028227C EQ PUSH2 0xFA JUMPI DUP1 PUSH4 0x5EA1D6F8 EQ PUSH2 0x124 JUMPI DUP1 PUSH4 0x682C2058 EQ PUSH2 0x14E JUMPI DUP1 PUSH4 0x6E161810 EQ PUSH2 0x178 JUMPI JUMPDEST PUSH0 DUP1 REVERT JUMPDEST CALLVALUE DUP1 ISZERO PUSH2 0xB5 JUMPI PUSH0 DUP1 REVERT JUMPDEST POP PUSH2 0xD0 PUSH1 0x4 DUP1 CALLDATASIZE SUB DUP2 ADD SWAP1 PUSH2 0xCB SWAP2 SWAP1 PUSH2 0xB40 JUMP JUMPDEST PUSH2 0x27B JUMP JUMPDEST STOP JUMPDEST CALLVALUE DUP1 ISZERO PUSH2 0xDD JUMPI PUSH0 DUP1 REVERT JUMPDEST POP PUSH2 0xF8 PUSH1 0x4 DUP1 CALLDATASIZE SUB DUP2 ADD SWAP1 PUSH2 0xF3 SWAP2 SWAP1 PUSH2 0xB40 JUMP JUMPDEST PUSH2 0x3CB JUMP JUMPDEST STOP JUMPDEST CALLVALUE DUP1 ISZERO PUSH2 0x105 JUMPI PUSH0 DUP1 REVERT JUMPDEST POP PUSH2 0x10E PUSH2 0x70C JUMP JUMPDEST PUSH1 0x40 MLOAD PUSH2 0x11B SWAP2 SWAP1 PUSH2 0xBE5 JUMP JUMPDEST PUSH1 0x40 MLOAD DUP1 SWAP2 SUB SWAP1 RETURN JUMPDEST CALLVALUE DUP1 ISZERO PUSH2 0x12F JUMPI PUSH0 DUP1 REVERT JUMPDEST POP PUSH2 0x138 PUSH2 0x731 JUMP JUMPDEST PUSH1 0x40 MLOAD PUSH2 0x145 SWAP2 SWAP1 PUSH2 0xC0D JUMP JUMPDEST PUSH1 0x40 MLOAD DUP1 SWAP2 SUB SWAP1 RETURN JUMPDEST CALLVALUE DUP1 ISZERO PUSH2 0x159 JUMPI PUSH0 DUP1 REVERT JUMPDEST POP PUSH2 0x162 PUSH2 0x737 JUMP JUMPDEST PUSH1 0x40 MLOAD PUSH2 0x16F SWAP2 SWAP1 PUSH2 0xC0D JUMP JUMPDEST PUSH1 0x40 MLOAD DUP1 SWAP2 SUB SWAP1 RETURN JUMPDEST CALLVALUE DUP1 ISZERO PUSH2 0x183 JUMPI PUSH0 DUP1 REVERT JUMPDEST POP PUSH2 0x18C PUSH2 0x73D JUMP JUMPDEST PUSH1 0x40 MLOAD PUSH2 0x199 SWAP2 SWAP1 PUSH2 0xC46 JUMP JUMPDEST PUSH1 0x40 MLOAD DUP1 SWAP2 SUB SWAP1 RETURN JUMPDEST CALLVALUE DUP1 ISZERO PUSH2 0x1AD JUMPI PUSH0 DUP1 REVERT JUMPDEST POP PUSH2 0x1C8 PUSH1 0x4 DUP1 CALLDATASIZE SUB DUP2 ADD SWAP1 PUSH2 0x1C3 SWAP2 SWAP1 PUSH2 0xC9A JUMP JUMPDEST PUSH2 0x762 JUMP JUMPDEST PUSH1 0x40 MLOAD PUSH2 0x1D6 SWAP3 SWAP2 SWAP1 PUSH2 0xCC5 JUMP JUMPDEST PUSH1 0x40 MLOAD DUP1 SWAP2 SUB SWAP1 RETURN JUMPDEST CALLVALUE DUP1 ISZERO PUSH2 0x1EA JUMPI PUSH0 DUP1 REVERT JUMPDEST POP PUSH2 0x1F3 PUSH2 0x782 JUMP JUMPDEST STOP JUMPDEST CALLVALUE DUP1 ISZERO PUSH2 0x200 JUMPI PUSH0 DUP1 REVERT JUMPDEST POP PUSH2 0x21B PUSH1 0x4 DUP1 CALLDATASIZE SUB DUP2 ADD SWAP1 PUSH2 0x216 SWAP2 SWAP1 PUSH2 0xCEC JUMP JUMPDEST PUSH2 0x8BB JUMP JUMPDEST STOP JUMPDEST CALLVALUE DUP1 ISZERO PUSH2 0x228 JUMPI PUSH0 DUP1 REVERT JUMPDEST POP PUSH2 0x231 PUSH2 0x9D7 JUMP JUMPDEST PUSH1 0x40 MLOAD PUSH2 0x23E SWAP2 SWAP1 PUSH2 0xD39 JUMP JUMPDEST PUSH1 0x40 MLOAD DUP1 SWAP2 SUB SWAP1 RETURN JUMPDEST PUSH2 0x24F PUSH2 0x9FA JUMP JUMPDEST STOP JUMPDEST CALLVALUE DUP1 ISZERO PUSH2 0x25C JUMPI PUSH0 DUP1 REVERT JUMPDEST POP PUSH2 0x265 PUSH2 0xAE4 JUMP JUMPDEST PUSH1 0x40 MLOAD PUSH2 0x272 SWAP2 SWAP1 PUSH2 0xD39 JUMP JUMPDEST PUSH1 0x40 MLOAD DUP1 SWAP2 SUB SWAP1 RETURN JUMPDEST PUSH0 PUSH1 0x6 PUSH0 CALLER PUSH20 0xFFFFFFFFFFFFFFFFFFFFFFFFFFFFFFFFFFFFFFFF AND PUSH20 0xFFFFFFFFFFFFFFFFFFFFFFFFFFFFFFFFFFFFFFFF AND DUP2 MSTORE PUSH1 0x20 ADD SWAP1 DUP2 MSTORE PUSH1 0x20 ADD PUSH0 KECCAK256 SWAP1 POP DUP2 DUP2 PUSH0 ADD SLOAD LT ISZERO PUSH2 0x301 JUMPI PUSH1 0x40 MLOAD PUSH32 0x8C379A000000000000000000000000000000000000000000000000000000000 DUP2 MSTORE PUSH1 0x4 ADD PUSH2 0x2F8 SWAP1 PUSH2 0xDD2 JUMP JUMPDEST PUSH1 0x40 MLOAD DUP1 SWAP2 SUB SWAP1 REVERT JUMPDEST DUP2 DUP2 PUSH1 0x1 ADD PUSH0 DUP3 DUP3 SLOAD PUSH2 0x314 SWAP2 SWAP1 PUSH2 0xE1D JUMP JUMPDEST SWAP3 POP POP DUP2 SWAP1 SSTORE POP DUP2 DUP2 PUSH0 ADD PUSH0 DUP3 DUP3 SLOAD PUSH2 0x32D SWAP2 SWAP1 PUSH2 0xE1D JUMP JUMPDEST SWAP3 POP POP DUP2 SWAP1 SSTORE POP CALLER PUSH20 0xFFFFFFFFFFFFFFFFFFFFFFFFFFFFFFFFFFFFFFFF AND PUSH2 0x8FC DUP4 SWAP1 DUP2 ISZERO MUL SWAP1 PUSH1 0x40 MLOAD PUSH0 PUSH1 0x40 MLOAD DUP1 DUP4 SUB DUP2 DUP6 DUP9 DUP9 CALL SWAP4 POP POP POP POP ISZERO DUP1 ISZERO PUSH2 0x377 JUMPI RETURNDATASIZE PUSH0 DUP1 RETURNDATACOPY RETURNDATASIZE PUSH0 REVERT JUMPDEST POP PUSH32 0xBF2ED60BD5B5965D685680C01195C9514E4382E28E3A5A2D2D5244BF59411B93 CALLER PUSH20 0xFFFFFFFFFFFFFFFFFFFFFFFFFFFFFFFFFFFFFFFF AND DUP4 PUSH1 0x40 MLOAD PUSH2 0x3BF SWAP3 SWAP2 SWAP1 PUSH2 0xCC5 JUMP JUMPDEST PUSH1 0x40 MLOAD DUP1 SWAP2 SUB SWAP1 LOG1 POP POP JUMP JUMPDEST PUSH1 0x3 PUSH0 SWAP1 SLOAD SWAP1 PUSH2 0x100 EXP SWAP1 DIV PUSH20 0xFFFFFFFFFFFFFFFFFFFFFFFFFFFFFFFFFFFFFFFF AND PUSH20 0xFFFFFFFFFFFFFFFFFFFFFFFFFFFFFFFFFFFFFFFF AND CALLER PUSH20 0xFFFFFFFFFFFFFFFFFFFFFFFFFFFFFFFFFFFFFFFF AND EQ PUSH2 0x45A JUMPI PUSH1 0x40 MLOAD PUSH32 0x8C379A000000000000000000000000000000000000000000000000000000000 DUP2 MSTORE PUSH1 0x4 ADD PUSH2 0x451 SWAP1 PUSH2 0xE9A JUMP JUMPDEST PUSH1 0x40 MLOAD DUP1 SWAP2 SUB SWAP1 REVERT JUMPDEST PUSH0 PUSH1 0x5 PUSH0 SWAP1 SLOAD SWAP1 PUSH2 0x100 EXP SWAP1 DIV PUSH20 0xFFFFFFFFFFFFFFFFFFFFFFFFFFFFFFFFFFFFFFFF AND PUSH20 0xFFFFFFFFFFFFFFFFFFFFFFFFFFFFFFFFFFFFFFFF AND PUSH4 0xE7572230 DUP4 PUSH1 0x40 MLOAD DUP3 PUSH4 0xFFFFFFFF AND PUSH1 0xE0 SHL DUP2 MSTORE PUSH1 0x4 ADD PUSH2 0x4B5 SWAP2 SWAP1 PUSH2 0xC0D JUMP JUMPDEST PUSH1 0x20 PUSH1 0x40 MLOAD DUP1 DUP4 SUB DUP2 DUP7 GAS STATICCALL ISZERO DUP1 ISZERO PUSH2 0x4D0 JUMPI RETURNDATASIZE PUSH0 DUP1 RETURNDATACOPY RETURNDATASIZE PUSH0 REVERT JUMPDEST POP POP POP POP PUSH1 0x40 MLOAD RETURNDATASIZE PUSH1 0x1F NOT PUSH1 0x1F DUP3 ADD AND DUP3 ADD DUP1 PUSH1 0x40 MSTORE POP DUP2 ADD SWAP1 PUSH2 0x4F4 SWAP2 SWAP1 PUSH2 0xECC JUMP JUMPDEST SWAP1 POP DUP1 SELFBALANCE LT ISZERO PUSH2 0x539 JUMPI PUSH1 0x40 MLOAD PUSH32 0x8C379A000000000000000000000000000000000000000000000000000000000 DUP2 MSTORE PUSH1 0x4 ADD PUSH2 0x530 SWAP1 PUSH2 0xF41 JUMP JUMPDEST PUSH1 0x40 MLOAD DUP1 SWAP2 SUB SWAP1 REVERT JUMPDEST PUSH0 DUP1 PUSH0 JUMPDEST DUP3 DUP2 LT ISZERO PUSH2 0x5C8 JUMPI PUSH0 PUSH1 0x6 PUSH0 CALLER PUSH20 0xFFFFFFFFFFFFFFFFFFFFFFFFFFFFFFFFFFFFFFFF AND PUSH20 0xFFFFFFFFFFFFFFFFFFFFFFFFFFFFFFFFFFFFFFFF AND DUP2 MSTORE PUSH1 0x20 ADD SWAP1 DUP2 MSTORE PUSH1 0x20 ADD PUSH0 KECCAK256 SWAP1 POP DUP4 DUP6 PUSH2 0x591 SWAP2 SWAP1 PUSH2 0xF8C JUMP JUMPDEST DUP2 PUSH0 ADD PUSH0 DUP3 DUP3 SLOAD PUSH2 0x5A2 SWAP2 SWAP1 PUSH2 0xE1D JUMP JUMPDEST SWAP3 POP POP DUP2 SWAP1 SSTORE POP DUP1 PUSH0 ADD SLOAD DUP4 PUSH2 0x5B8 SWAP2 SWAP1 PUSH2 0xFBC JUMP JUMPDEST SWAP3 POP POP DUP1 DUP1 PUSH1 0x1 ADD SWAP2 POP POP PUSH2 0x53D JUMP JUMPDEST POP PUSH1 0x64 PUSH1 0x1 SLOAD DUP5 PUSH2 0x5D9 SWAP2 SWAP1 PUSH2 0xFEF JUMP JUMPDEST PUSH2 0x5E3 SWAP2 SWAP1 PUSH2 0xF8C JUMP JUMPDEST PUSH1 0x2 PUSH0 DUP3 DUP3 SLOAD PUSH2 0x5F3 SWAP2 SWAP1 PUSH2 0xFBC JUMP JUMPDEST SWAP3 POP POP DUP2 SWAP1 SSTORE POP PUSH1 0x5 PUSH0 SWAP1 SLOAD SWAP1 PUSH2 0x100 EXP SWAP1 DIV PUSH20 0xFFFFFFFFFFFFFFFFFFFFFFFFFFFFFFFFFFFFFFFF AND PUSH20 0xFFFFFFFFFFFFFFFFFFFFFFFFFFFFFFFFFFFFFFFF AND PUSH4 0xEFEF39A1 DUP5 DUP7 PUSH1 0x40 MLOAD DUP4 PUSH4 0xFFFFFFFF AND PUSH1 0xE0 SHL DUP2 MSTORE PUSH1 0x4 ADD PUSH2 0x655 SWAP2 SWAP1 PUSH2 0xC0D JUMP JUMPDEST PUSH1 0x20 PUSH1 0x40 MLOAD DUP1 DUP4 SUB DUP2 DUP6 DUP9 GAS CALL ISZERO DUP1 ISZERO PUSH2 0x671 JUMPI RETURNDATASIZE PUSH0 DUP1 RETURNDATACOPY RETURNDATASIZE PUSH0 REVERT JUMPDEST POP POP POP POP POP PUSH1 0x40 MLOAD RETURNDATASIZE PUSH1 0x1F NOT PUSH1 0x1F DUP3 ADD AND DUP3 ADD DUP1 PUSH1 0x40 MSTORE POP DUP2 ADD SWAP1 PUSH2 0x696 SWAP2 SWAP1 PUSH2 0xECC JUMP JUMPDEST POP PUSH1 0x5 PUSH0 SWAP1 SLOAD SWAP1 PUSH2 0x100 EXP SWAP1 DIV PUSH20 0xFFFFFFFFFFFFFFFFFFFFFFFFFFFFFFFFFFFFFFFF AND PUSH20 0xFFFFFFFFFFFFFFFFFFFFFFFFFFFFFFFFFFFFFFFF AND PUSH32 0x3CB5A9431B7A53F5164349F28B2539F9C52BC4936A2EB0783C321E866056DA29 DUP6 PUSH1 0x40 MLOAD PUSH2 0x6FE SWAP2 SWAP1 PUSH2 0xC0D JUMP JUMPDEST PUSH1 0x40 MLOAD DUP1 SWAP2 SUB SWAP1 LOG2 POP POP POP POP JUMP JUMPDEST PUSH1 0x5 PUSH0 SWAP1 SLOAD SWAP1 PUSH2 0x100 EXP SWAP1 DIV PUSH20 0xFFFFFFFFFFFFFFFFFFFFFFFFFFFFFFFFFFFFFFFF AND DUP2 JUMP JUMPDEST PUSH1 0x1 SLOAD DUP2 JUMP JUMPDEST PUSH1 0x2 SLOAD DUP2 JUMP JUMPDEST PUSH1 0x4 PUSH0 SWAP1 SLOAD SWAP1 PUSH2 0x100 EXP SWAP1 DIV PUSH20 0xFFFFFFFFFFFFFFFFFFFFFFFFFFFFFFFFFFFFFFFF AND DUP2 JUMP JUMPDEST PUSH1 0x6 PUSH1 0x20 MSTORE DUP1 PUSH0 MSTORE PUSH1 0x40 PUSH0 KECCAK256 PUSH0 SWAP2 POP SWAP1 POP DUP1 PUSH0 ADD SLOAD SWAP1 DUP1 PUSH1 0x1 ADD SLOAD SWAP1 POP DUP3 JUMP JUMPDEST PUSH1 0x3 PUSH0 SWAP1 SLOAD SWAP1 PUSH2 0x100 EXP SWAP1 DIV PUSH20 0xFFFFFFFFFFFFFFFFFFFFFFFFFFFFFFFFFFFFFFFF AND PUSH20 0xFFFFFFFFFFFFFFFFFFFFFFFFFFFFFFFFFFFFFFFF AND CALLER PUSH20 0xFFFFFFFFFFFFFFFFFFFFFFFFFFFFFFFFFFFFFFFF AND EQ PUSH2 0x811 JUMPI PUSH1 0x40 MLOAD PUSH32 0x8C379A000000000000000000000000000000000000000000000000000000000 DUP2 MSTORE PUSH1 0x4 ADD PUSH2 0x808 SWAP1 PUSH2 0xE9A JUMP JUMPDEST PUSH1 0x40 MLOAD DUP1 SWAP2 SUB SWAP1 REVERT JUMPDEST PUSH0 PUSH1 0x2 SLOAD SWAP1 POP PUSH0 PUSH1 0x2 DUP2 SWAP1 SSTORE POP PUSH0 DUP1 SLOAD SWAP1 PUSH2 0x100 EXP SWAP1 DIV PUSH20 0xFFFFFFFFFFFFFFFFFFFFFFFFFFFFFFFFFFFFFFFF AND PUSH20 0xFFFFFFFFFFFFFFFFFFFFFFFFFFFFFFFFFFFFFFFF AND PUSH2 0x8FC DUP3 SWAP1 DUP2 ISZERO MUL SWAP1 PUSH1 0x40 MLOAD PUSH0 PUSH1 0x40 MLOAD DUP1 DUP4 SUB DUP2 DUP6 DUP9 DUP9 CALL SWAP4 POP POP POP POP ISZERO DUP1 ISZERO PUSH2 0x880 JUMPI RETURNDATASIZE PUSH0 DUP1 RETURNDATACOPY RETURNDATASIZE PUSH0 REVERT JUMPDEST POP PUSH32 0x731A1521D96E312D418A6BC035ED3532CE30FE1A40899D911256E65BC6123092 DUP2 PUSH1 0x40 MLOAD PUSH2 0x8B0 SWAP2 SWAP1 PUSH2 0xC0D JUMP JUMPDEST PUSH1 0x40 MLOAD DUP1 SWAP2 SUB SWAP1 LOG1 POP JUMP JUMPDEST PUSH1 0x3 PUSH0 SWAP1 SLOAD SWAP1 PUSH2 0x100 EXP SWAP1 DIV PUSH20 0xFFFFFFFFFFFFFFFFFFFFFFFFFFFFFFFFFFFFFFFF AND PUSH20 0xFFFFFFFFFFFFFFFFFFFFFFFFFFFFFFFFFFFFFFFF AND CALLER PUSH20 0xFFFFFFFFFFFFFFFFFFFFFFFFFFFFFFFFFFFFFFFF AND EQ PUSH2 0x94A JUMPI PUSH1 0x40 MLOAD PUSH32 0x8C379A000000000000000000000000000000000000000000000000000000000 DUP2 MSTORE PUSH1 0x4 ADD PUSH2 0x941 SWAP1 PUSH2 0xE9A JUMP JUMPDEST PUSH1 0x40 MLOAD DUP1 SWAP2 SUB SWAP1 REVERT JUMPDEST PUSH1 0x5 PUSH0 SWAP1 SLOAD SWAP1 PUSH2 0x100 EXP SWAP1 DIV PUSH20 0xFFFFFFFFFFFFFFFFFFFFFFFFFFFFFFFFFFFFFFFF AND PUSH20 0xFFFFFFFFFFFFFFFFFFFFFFFFFFFFFFFFFFFFFFFF AND PUSH4 0xB4DE8381 DUP4 DUP4 PUSH1 0x40 MLOAD DUP4 PUSH4 0xFFFFFFFF AND PUSH1 0xE0 SHL DUP2 MSTORE PUSH1 0x4 ADD PUSH2 0x9A6 SWAP3 SWAP2 SWAP1 PUSH2 0x1030 JUMP JUMPDEST PUSH0 PUSH1 0x40 MLOAD DUP1 DUP4 SUB DUP2 PUSH0 DUP8 DUP1 EXTCODESIZE ISZERO DUP1 ISZERO PUSH2 0x9BD JUMPI PUSH0 DUP1 REVERT JUMPDEST POP GAS CALL ISZERO DUP1 ISZERO PUSH2 0x9CF JUMPI RETURNDATASIZE PUSH0 DUP1 RETURNDATACOPY RETURNDATASIZE PUSH0 REVERT JUMPDEST POP POP POP POP POP POP JUMP JUMPDEST PUSH0 DUP1 SLOAD SWAP1 PUSH2 0x100 EXP SWAP1 DIV PUSH20 0xFFFFFFFFFFFFFFFFFFFFFFFFFFFFFFFFFFFFFFFF AND DUP2 JUMP JUMPDEST PUSH0 PUSH1 0x6 PUSH0 CALLER PUSH20 0xFFFFFFFFFFFFFFFFFFFFFFFFFFFFFFFFFFFFFFFF AND PUSH20 0xFFFFFFFFFFFFFFFFFFFFFFFFFFFFFFFFFFFFFFFF AND DUP2 MSTORE PUSH1 0x20 ADD SWAP1 DUP2 MSTORE PUSH1 0x20 ADD PUSH0 KECCAK256 SWAP1 POP CALLVALUE DUP2 PUSH1 0x1 ADD PUSH0 DUP3 DUP3 SLOAD PUSH2 0xA4D SWAP2 SWAP1 PUSH2 0xFBC JUMP JUMPDEST SWAP3 POP POP DUP2 SWAP1 SSTORE POP PUSH1 0x64 PUSH1 0x1 SLOAD PUSH1 0x64 PUSH2 0xA65 SWAP2 SWAP1 PUSH2 0xE1D JUMP JUMPDEST CALLVALUE PUSH2 0xA70 SWAP2 SWAP1 PUSH2 0xFEF JUMP JUMPDEST PUSH2 0xA7A SWAP2 SWAP1 PUSH2 0xF8C JUMP JUMPDEST DUP2 PUSH0 ADD PUSH0 DUP3 DUP3 SLOAD PUSH2 0xA8B SWAP2 SWAP1 PUSH2 0xFBC JUMP JUMPDEST SWAP3 POP POP DUP2 SWAP1 SSTORE POP PUSH32 0xA3AF609BF46297028CE551832669030F9EFFEF2B02606D02CBBCC40FE6B47C55 CALLER PUSH20 0xFFFFFFFFFFFFFFFFFFFFFFFFFFFFFFFFFFFFFFFF AND CALLVALUE PUSH1 0x40 MLOAD PUSH2 0xAD9 SWAP3 SWAP2 SWAP1 PUSH2 0xCC5 JUMP JUMPDEST PUSH1 0x40 MLOAD DUP1 SWAP2 SUB SWAP1 LOG1 POP JUMP JUMPDEST PUSH1 0x3 PUSH0 SWAP1 SLOAD SWAP1 PUSH2 0x100 EXP SWAP1 DIV PUSH20 0xFFFFFFFFFFFFFFFFFFFFFFFFFFFFFFFFFFFFFFFF AND DUP2 JUMP JUMPDEST PUSH0 DUP1 REVERT JUMPDEST PUSH0 DUP2 SWAP1 POP SWAP2 SWAP1 POP JUMP JUMPDEST PUSH2 0xB1F DUP2 PUSH2 0xB0D JUMP JUMPDEST DUP2 EQ PUSH2 0xB29 JUMPI PUSH0 DUP1 REVERT JUMPDEST POP JUMP JUMPDEST PUSH0 DUP2 CALLDATALOAD SWAP1 POP PUSH2 0xB3A DUP2 PUSH2 0xB16 JUMP JUMPDEST SWAP3 SWAP2 POP POP JUMP JUMPDEST PUSH0 PUSH1 0x20 DUP3 DUP5 SUB SLT ISZERO PUSH2 0xB55 JUMPI PUSH2 0xB54 PUSH2 0xB09 JUMP JUMPDEST JUMPDEST PUSH0 PUSH2 0xB62 DUP5 DUP3 DUP6 ADD PUSH2 0xB2C JUMP JUMPDEST SWAP2 POP POP SWAP3 SWAP2 POP POP JUMP JUMPDEST PUSH0 PUSH20 0xFFFFFFFFFFFFFFFFFFFFFFFFFFFFFFFFFFFFFFFF DUP3 AND SWAP1 POP SWAP2 SWAP1 POP JUMP JUMPDEST PUSH0 DUP2 SWAP1 POP SWAP2 SWAP1 POP JUMP JUMPDEST PUSH0 PUSH2 0xBAD PUSH2 0xBA8 PUSH2 0xBA3 DUP5 PUSH2 0xB6B JUMP JUMPDEST PUSH2 0xB8A JUMP JUMPDEST PUSH2 0xB6B JUMP JUMPDEST SWAP1 POP SWAP2 SWAP1 POP JUMP JUMPDEST PUSH0 PUSH2 0xBBE DUP3 PUSH2 0xB93 JUMP JUMPDEST SWAP1 POP SWAP2 SWAP1 POP JUMP JUMPDEST PUSH0 PUSH2 0xBCF DUP3 PUSH2 0xBB4 JUMP JUMPDEST SWAP1 POP SWAP2 SWAP1 POP JUMP JUMPDEST PUSH2 0xBDF DUP2 PUSH2 0xBC5 JUMP JUMPDEST DUP3 MSTORE POP POP JUMP JUMPDEST PUSH0 PUSH1 0x20 DUP3 ADD SWAP1 POP PUSH2 0xBF8 PUSH0 DUP4 ADD DUP5 PUSH2 0xBD6 JUMP JUMPDEST SWAP3 SWAP2 POP POP JUMP JUMPDEST PUSH2 0xC07 DUP2 PUSH2 0xB0D JUMP JUMPDEST DUP3 MSTORE POP POP JUMP JUMPDEST PUSH0 PUSH1 0x20 DUP3 ADD SWAP1 POP PUSH2 0xC20 PUSH0 DUP4 ADD DUP5 PUSH2 0xBFE JUMP JUMPDEST SWAP3 SWAP2 POP POP JUMP JUMPDEST PUSH0 PUSH2 0xC30 DUP3 PUSH2 0xBB4 JUMP JUMPDEST SWAP1 POP SWAP2 SWAP1 POP JUMP JUMPDEST PUSH2 0xC40 DUP2 PUSH2 0xC26 JUMP JUMPDEST DUP3 MSTORE POP POP JUMP JUMPDEST PUSH0 PUSH1 0x20 DUP3 ADD SWAP1 POP PUSH2 0xC59 PUSH0 DUP4 ADD DUP5 PUSH2 0xC37 JUMP JUMPDEST SWAP3 SWAP2 POP POP JUMP JUMPDEST PUSH0 PUSH2 0xC69 DUP3 PUSH2 0xB6B JUMP JUMPDEST SWAP1 POP SWAP2 SWAP1 POP JUMP JUMPDEST PUSH2 0xC79 DUP2 PUSH2 0xC5F JUMP JUMPDEST DUP2 EQ PUSH2 0xC83 JUMPI PUSH0 DUP1 REVERT JUMPDEST POP JUMP JUMPDEST PUSH0 DUP2 CALLDATALOAD SWAP1 POP PUSH2 0xC94 DUP2 PUSH2 0xC70 JUMP JUMPDEST SWAP3 SWAP2 POP POP JUMP JUMPDEST PUSH0 PUSH1 0x20 DUP3 DUP5 SUB SLT ISZERO PUSH2 0xCAF JUMPI PUSH2 0xCAE PUSH2 0xB09 JUMP JUMPDEST JUMPDEST PUSH0 PUSH2 0xCBC DUP5 DUP3 DUP6 ADD PUSH2 0xC86 JUMP JUMPDEST SWAP2 POP POP SWAP3 SWAP2 POP POP JUMP JUMPDEST PUSH0 PUSH1 0x40 DUP3 ADD SWAP1 POP PUSH2 0xCD8 PUSH0 DUP4 ADD DUP6 PUSH2 0xBFE JUMP JUMPDEST PUSH2 0xCE5 PUSH1 0x20 DUP4 ADD DUP5 PUSH2 0xBFE JUMP JUMPDEST SWAP4 SWAP3 POP POP POP JUMP JUMPDEST PUSH0 DUP1 PUSH1 0x40 DUP4 DUP6 SUB SLT ISZERO PUSH2 0xD02 JUMPI PUSH2 0xD01 PUSH2 0xB09 JUMP JUMPDEST JUMPDEST PUSH0 PUSH2 0xD0F DUP6 DUP3 DUP7 ADD PUSH2 0xB2C JUMP JUMPDEST SWAP3 POP POP PUSH1 0x20 PUSH2 0xD20 DUP6 DUP3 DUP7 ADD PUSH2 0xC86 JUMP JUMPDEST SWAP2 POP POP SWAP3 POP SWAP3 SWAP1 POP JUMP JUMPDEST PUSH2 0xD33 DUP2 PUSH2 0xC5F JUMP JUMPDEST DUP3 MSTORE POP POP JUMP JUMPDEST PUSH0 PUSH1 0x20 DUP3 ADD SWAP1 POP PUSH2 0xD4C PUSH0 DUP4 ADD DUP5 PUSH2 0xD2A JUMP JUMPDEST SWAP3 SWAP2 POP POP JUMP JUMPDEST PUSH0 DUP3 DUP3 MSTORE PUSH1 0x20 DUP3 ADD SWAP1 POP SWAP3 SWAP2 POP POP JUMP JUMPDEST PUSH32 0x52657175657374656420616D6F756E742067726561746572207468616E206F77 PUSH0 DUP3 ADD MSTORE PUSH32 0x6564000000000000000000000000000000000000000000000000000000000000 PUSH1 0x20 DUP3 ADD MSTORE POP JUMP JUMPDEST PUSH0 PUSH2 0xDBC PUSH1 0x22 DUP4 PUSH2 0xD52 JUMP JUMPDEST SWAP2 POP PUSH2 0xDC7 DUP3 PUSH2 0xD62 JUMP JUMPDEST PUSH1 0x40 DUP3 ADD SWAP1 POP SWAP2 SWAP1 POP JUMP JUMPDEST PUSH0 PUSH1 0x20 DUP3 ADD SWAP1 POP DUP2 DUP2 SUB PUSH0 DUP4 ADD MSTORE PUSH2 0xDE9 DUP2 PUSH2 0xDB0 JUMP JUMPDEST SWAP1 POP SWAP2 SWAP1 POP JUMP JUMPDEST PUSH32 0x4E487B7100000000000000000000000000000000000000000000000000000000 PUSH0 MSTORE PUSH1 0x11 PUSH1 0x4 MSTORE PUSH1 0x24 PUSH0 REVERT JUMPDEST PUSH0 PUSH2 0xE27 DUP3 PUSH2 0xB0D JUMP JUMPDEST SWAP2 POP PUSH2 0xE32 DUP4 PUSH2 0xB0D JUMP JUMPDEST SWAP3 POP DUP3 DUP3 SUB SWAP1 POP DUP2 DUP2 GT ISZERO PUSH2 0xE4A JUMPI PUSH2 0xE49 PUSH2 0xDF0 JUMP JUMPDEST JUMPDEST SWAP3 SWAP2 POP POP JUMP JUMPDEST PUSH32 0x4E6F7420617574686F72697A6564000000000000000000000000000000000000 PUSH0 DUP3 ADD MSTORE POP JUMP JUMPDEST PUSH0 PUSH2 0xE84 PUSH1 0xE DUP4 PUSH2 0xD52 JUMP JUMPDEST SWAP2 POP PUSH2 0xE8F DUP3 PUSH2 0xE50 JUMP JUMPDEST PUSH1 0x20 DUP3 ADD SWAP1 POP SWAP2 SWAP1 POP JUMP JUMPDEST PUSH0 PUSH1 0x20 DUP3 ADD SWAP1 POP DUP2 DUP2 SUB PUSH0 DUP4 ADD MSTORE PUSH2 0xEB1 DUP2 PUSH2 0xE78 JUMP JUMPDEST SWAP1 POP SWAP2 SWAP1 POP JUMP JUMPDEST PUSH0 DUP2 MLOAD SWAP1 POP PUSH2 0xEC6 DUP2 PUSH2 0xB16 JUMP JUMPDEST SWAP3 SWAP2 POP POP JUMP JUMPDEST PUSH0 PUSH1 0x20 DUP3 DUP5 SUB SLT ISZERO PUSH2 0xEE1 JUMPI PUSH2 0xEE0 PUSH2 0xB09 JUMP JUMPDEST JUMPDEST PUSH0 PUSH2 0xEEE DUP5 DUP3 DUP6 ADD PUSH2 0xEB8 JUMP JUMPDEST SWAP2 POP POP SWAP3 SWAP2 POP POP JUMP JUMPDEST PUSH32 0x496E73756666696369656E742062616C616E6365000000000000000000000000 PUSH0 DUP3 ADD MSTORE POP JUMP JUMPDEST PUSH0 PUSH2 0xF2B PUSH1 0x14 DUP4 PUSH2 0xD52 JUMP JUMPDEST SWAP2 POP PUSH2 0xF36 DUP3 PUSH2 0xEF7 JUMP JUMPDEST PUSH1 0x20 DUP3 ADD SWAP1 POP SWAP2 SWAP1 POP JUMP JUMPDEST PUSH0 PUSH1 0x20 DUP3 ADD SWAP1 POP DUP2 DUP2 SUB PUSH0 DUP4 ADD MSTORE PUSH2 0xF58 DUP2 PUSH2 0xF1F JUMP JUMPDEST SWAP1 POP SWAP2 SWAP1 POP JUMP JUMPDEST PUSH32 0x4E487B7100000000000000000000000000000000000000000000000000000000 PUSH0 MSTORE PUSH1 0x12 PUSH1 0x4 MSTORE PUSH1 0x24 PUSH0 REVERT JUMPDEST PUSH0 PUSH2 0xF96 DUP3 PUSH2 0xB0D JUMP JUMPDEST SWAP2 POP PUSH2 0xFA1 DUP4 PUSH2 0xB0D JUMP JUMPDEST SWAP3 POP DUP3 PUSH2 0xFB1 JUMPI PUSH2 0xFB0 PUSH2 0xF5F JUMP JUMPDEST JUMPDEST DUP3 DUP3 DIV SWAP1 POP SWAP3 SWAP2 POP POP JUMP JUMPDEST PUSH0 PUSH2 0xFC6 DUP3 PUSH2 0xB0D JUMP JUMPDEST SWAP2 POP PUSH2 0xFD1 DUP4 PUSH2 0xB0D JUMP JUMPDEST SWAP3 POP DUP3 DUP3 ADD SWAP1 POP DUP1 DUP3 GT ISZERO PUSH2 0xFE9 JUMPI PUSH2 0xFE8 PUSH2 0xDF0 JUMP JUMPDEST JUMPDEST SWAP3 SWAP2 POP POP JUMP JUMPDEST PUSH0 PUSH2 0xFF9 DUP3 PUSH2 0xB0D JUMP JUMPDEST SWAP2 POP PUSH2 0x1004 DUP4 PUSH2 0xB0D JUMP JUMPDEST SWAP3 POP DUP3 DUP3 MUL PUSH2 0x1012 DUP2 PUSH2 0xB0D JUMP JUMPDEST SWAP2 POP DUP3 DUP3 DIV DUP5 EQ DUP4 ISZERO OR PUSH2 0x1029 JUMPI PUSH2 0x1028 PUSH2 0xDF0 JUMP JUMPDEST JUMPDEST POP SWAP3 SWAP2 POP POP JUMP JUMPDEST PUSH0 PUSH1 0x40 DUP3 ADD SWAP1 POP PUSH2 0x1043 PUSH0 DUP4 ADD DUP6 PUSH2 0xBFE JUMP JUMPDEST PUSH2 0x1050 PUSH1 0x20 DUP4 ADD DUP5 PUSH2 0xD2A JUMP JUMPDEST SWAP4 SWAP3 POP POP POP JUMP INVALID LOG2 PUSH5 0x6970667358 0x22 SLT KECCAK256 PUSH15 0xD59D8B2DFC47A38C4DA4CD8007B8C9 LT 0xC7 0xAC MUL DUP15 SWAP8 0xE6 0x1E 0xB8 PUSH16 0x17D31DEE438264736F6C634300081A00 CALLER "
        },
        "gasEstimates": {
          "creation": {
            "codeDepositCost": "847400",
            "executionCost": "infinite",
            "totalCost": "infinite"
          },
          "external": {
            "accruedFees()": "2514",
            "admin()": "2618",
            "commissionRate()": "2492",
            "commissionsAddress()": "2571",
            "deposit()": "infinite",
            "flowUtilityToken()": "infinite",
            "purchaseMoment(uint256)": "infinite",
            "topShot()": "infinite",
            "transferMoment(uint256,address)": "infinite",
            "users(address)": "infinite",
            "withdraw(uint256)": "infinite",
            "withdrawAccruedFees()": "infinite"
          }
        },
        "methodIdentifiers": {
          "accruedFees()": "682c2058",
          "admin()": "f851a440",
          "commissionRate()": "5ea1d6f8",
          "commissionsAddress()": "c29785cc",
          "deposit()": "d0e30db0",
          "flowUtilityToken()": "6e161810",
          "purchaseMoment(uint256)": "41eb7307",
          "topShot()": "5028227c",
          "transferMoment(uint256,address)": "b4de8381",
          "users(address)": "a87430ba",
          "withdraw(uint256)": "2e1a7d4d",
          "withdrawAccruedFees()": "ada82c7d"
        }
      },
      "storageLayout": {
        "storage": [
          {
            "astId": 41,
            "contract": "contracts/BettingPool.sol:BettingPool",
            "label": "commissionsAddress",
            "offset": 0,
            "slot": "0",
            "type": "t_address"
          },
          {
            "astId": 44,
            "contract": "contracts/BettingPool.sol:BettingPool",
            "label": "commissionRate",
            "offset": 0,
            "slot": "1",
            "type": "t_uint256"
          },
          {
            "astId": 46,
            "contract": "contracts/BettingPool.sol:BettingPool",
            "label": "accruedFees",
            "offset": 0,
            "slot": "2",
            "type": "t_uint256"
          },
          {
            "astId": 48,
            "contract": "contracts/BettingPool.sol:BettingPool",
            "label": "admin",
            "offset": 0,
            "slot": "3",
            "type": "t_address"
          },
          {
            "astId": 51,
            "contract": "contracts/BettingPool.sol:BettingPool",
            "label": "flowUtilityToken",
            "offset": 0,
            "slot": "4",
            "type": "t_contract(IFlowUtilityToken)39"
          },
          {
            "astId": 54,
            "contract": "contracts/BettingPool.sol:BettingPool",
            "label": "topShot",
            "offset": 0,
            "slot": "5",
            "type": "t_contract(ITopShot)23"
          },
          {
            "astId": 90,
            "contract": "contracts/BettingPool.sol:BettingPool",
            "label": "users",
            "offset": 0,
            "slot": "6",
            "type": "t_mapping(t_address,t_struct(User)85_storage)"
          }
        ],
        "types": {
          "t_address": {
            "encoding": "inplace",
            "label": "address",
            "numberOfBytes": "20"
          },
          "t_contract(IFlowUtilityToken)39": {
            "encoding": "inplace",
            "label": "contract IFlowUtilityToken",
            "numberOfBytes": "20"
          },
          "t_contract(ITopShot)23": {
            "encoding": "inplace",
            "label": "contract ITopShot",
            "numberOfBytes": "20"
          },
          "t_mapping(t_address,t_struct(User)85_storage)": {
            "encoding": "mapping",
            "key": "t_address",
            "label": "mapping(address => struct BettingPool.User)",
            "numberOfBytes": "32",
            "value": "t_struct(User)85_storage"
          },
          "t_struct(User)85_storage": {
            "encoding": "inplace",
            "label": "struct BettingPool.User",
            "members": [
              {
                "astId": 82,
                "contract": "contracts/BettingPool.sol:BettingPool",
                "label": "owedValue",
                "offset": 0,
                "slot": "0",
                "type": "t_uint256"
              },
              {
                "astId": 84,
                "contract": "contracts/BettingPool.sol:BettingPool",
                "label": "balance",
                "offset": 0,
                "slot": "1",
                "type": "t_uint256"
              }
            ],
            "numberOfBytes": "64"
          },
          "t_uint256": {
            "encoding": "inplace",
            "label": "uint256",
            "numberOfBytes": "32"
          }
        }
      },
      "userdoc": {
        "kind": "user",
        "methods": {},
        "version": 1
      }
    }
  }
}